:100000004D424E014D3448500902040001002200C7
:100010006000000000C000000000000000000000C0
:100020000000EEEE000000000000000000000000F4
:1000300001000902000000000000000000000000B4
:100040000200130100002B000000000000AC0000C3
:10005000030013012B00300000AC0000001400006E
:1000600000380020ED020000000000000000000049
:100070000000000000000000000000000000000080
:100080000000000000000000000000000000000070
:10009000000000000000000000000000B5010000AA
:1000A000E1010000FD010000B9010000CD010000E8
:1000B00000000000002934D00123002210B488423F
:1000C0002CD301242407A14204D2814202D2090187
:1000D0001B01F8E7E400A14204D2814202D24900A8
:1000E0005B00F8E7884201D3401A1A434C08A0424B
:1000F00002D3001B5C0822438C08A04202D3001BE1
:100100009C082243CC08A04202D3001BDC082243F7
:10011000002803D01B0901D00909E3E7101C10BC1B
:100120007047002801D00020C04307B4024802A154
:100130004018029003BDC046D90000000029F0D04D
:1001400003B5FFF7B9FF0EBC4243891A1847C046F2
:10015000002941D010B4041C4C40A44601230022C5
:10016000002900D54942002800D5404288422CD3BE
:1001700001242407A14204D2814202D209011B01B9
:10018000F8E7E400A14204D2814202D249005B00B8
:10019000F8E7884201D3401A1A434C08A04202D320
:1001A000001B5C0822438C08A04202D3001B9C0861
:1001B0002243CC08A04202D3001BDC0822430028C3
:1001C00003D01B0901D00909E3E7101C6446002C89
:1001D00000D5404210BC7047002806D003DB002049
:1001E000C043400801E08020000607B4024802A195
:1001F0004018029003BDC046190000000029EBD052
:1002000003B5FFF7A7FF0EBC4243891A1847C04643
:100210007047C046FEE70000034B01225A70A0233E
:100220000022DB051A707047C00E0020034B01222C
:100230009A70A0230022DB059A707047C00E002040
:1002400008B5044B01221A70034B0022DA7700F044
:100250000FFF08BDC00E00200800005038B58025F3
:10026000ED052B79DBB2002B0CD130490B604B60D4
:100270002B89081C9BB28B608A680C30103107F008
:1002800051F847E0012B0DD1284BD968002941D006
:100290005A68186982423DDA5A68501C58602B7AB5
:1002A0008B5437E0022B30D1204CE368002B2AD04E
:1002B000226821698A420CDA22689B5C1BBAEB60D7
:1002C000A3682068C01880B207F06AF82368013379
:1002D00017E0A2682368201C211CD2180C301031B2
:1002E00007F020F8E368002B0DD0A16822688A1877
:1002F000A2601B781BBAEB60A06880B207F050F8D0
:100300000123236006E0EB6004E0032B02D1074BDE
:1003100000225A60C0468023DB0501221A70C046C5
:1003200002221A7000221A7038BDC0461403002041
:1003300080230222DB05FF321A600421024AFF31CA
:10034000118000221A70704706000040F8B5A02303
:10035000DB059B68494A1F21DBB21160D12B0BD012
:10036000D02B01D80133DBB2A022D2059168FF2047
:10037000814319439160F1E70023414A41499A18AA
:100380008A4204D24049C95804331160F5E73F4B13
:100390003F4A191D043B934203D200221A600B1CF2
:1003A000F6E7EFF308823B4B191D043B9A4203D951
:1003B000394818600B1CF7E7FFF7BAFF3749384890
:1003C000053904F035FB374C374D01235B4223716F
:1003D0006371A371E3712B1C3C331A782B1C3D33E2
:1003E0001B7880B21B02134398423FD106F082FF74
:1003F0002E4B2F4918882F4A88420BD06E7D1888C3
:100400002B7D36023343984204D113889BB223716B
:100410001B0A637113888B421BD0EE7DA87D138865
:1004200036023043834214D100200423013BDBB267
:10043000FF2B07D0204EEF18F65C3F79B742F5D17D
:100440000120F3E7002804D013889BB2A3711B0A94
:10045000E371637922791B0213438B4206D0E27960
:10046000A37912021A43124B9A4204D1134B02226F
:100470001A6062B6FEE701F049F9F7E7280000507C
:100480000000002014030020849F000018030020B7
:10049000BC0E00200C0F0020CDCDCDCD00C0000043
:1004A00000000000C40E0020C0BF0000FEAB000032
:1004B000FFFF0000BEBF000000AC000000E100E054
:1004C000014B18607047C046CC0E0020014B1868E5
:1004D0007047C046CC0E0020014B18607047C046E4
:1004E000D00E0020014B18687047C046D00E002087
:1004F000014B18687047C0460000002038B5134C07
:10050000256804F0B9FE6862256804F0B9FEA862A7
:10051000256804F0B9FE6861256804F0B9FEE86159
:10052000256804F007FFA861256804F019FF084B4F
:1005300008491B68096828621878097C22684143C9
:1005400002331161F032136038BDC0460000002054
:10055000D00E0020CC0E002082B0F0B589B0109CE7
:10056000151C0F930693029407900E1C119C04F027
:10057000DDF947793A4B04978279964206D11B6898
:100580000021DA69AB00D05A03910BE01A68354BB1
:1005900052691968731C896803964B43EB18013341
:1005A0009B00D05A0499714349194A00A418238822
:1005B000069E0193019F7318874203D8C61B029FB2
:1005C000BE521CE0029EB61805960027F65F013663
:1005D00010D01F787EB2B446013601DA013703E04D
:1005E0006646002E06DD013F1F7002235B4223801A
:1005F00001202FE0069F79180F78002F01D120806D
:100600000CE07FB27C1C05D1019E059F301A38801A
:10061000002002E0012F01D1FF2008701978039C0F
:10062000049E079F48B274437D19002805DC029E92
:10063000B25E013208D0002906D12A5700203E2A96
:1006400008DC0131197005E02A57002A01DD013963
:100650001970002009B0F0BC08BC02B01847C046B1
:100660000000002000030020F0B58BB000AF04F0C4
:100670005DF906F0E1FE584C6E4623689D68DB6824
:100680007D625A00111C0E319B00C9080E33C9004F
:10069000DB08DB00761AB546F61A6D46002168467F
:1006A000B546BD61FE6009F021FA002004F036FF76
:1006B0007E6A4A4A20681568B20052420368BA60EE
:1006C000321C5A439100F961B107711A79609107A0
:1006D000891A3A62013B32D344683E6A3219261CB9
:1006E0005E437618B400FE68920034197C61FC69A0
:1006F000A2420BD07C690426A418A4466C697642F9
:10070000A458B44466463460043AF0E7BE683A6AD6
:10071000A419FC617C6A7E68121B3A628919D9E7C8
:100720002F49F8697E23D2B25B4208704A708A7002
:10073000CB7001205223BA690B7106F081FD06F0DF
:1007400055FC0B2845D1002004F0E8FE224B196827
:10075000224B08681C687B6AF86143439A003A623E
:100760009A07D21A3A617B61844666464A68013E1E
:10077000B446D5D3654655437E691A48B318121856
:100780005219BE6938695200B2182D18FE68AD00C2
:1007900075199B003D603E6AB3420ED03D68E81873
:1007A000656904380668E858301A0025565F8642A5
:1007B00000DA1080043B023AEDE7BD6876193E622C
:1007C0007D6A7E69761B7E617D683E6976193E6131
:1007D000CBE7BD460BB0F0BD0003002000000020B9
:1007E00014040020FFFFFF7F08B502F037FB021E54
:1007F00005D10749A9230B7106F022FDFEE7054B41
:100800001B6803CB04F08CF9FFF778FE08BDC046E7
:100810001B040020000300200F4B00221B68191C42
:1008200090310A60181C0121A430494201608260A5
:1008300008380260C1824283103841610260C2619F
:100840000C300183191CB431026020390A848833CA
:100850000A601A607047C04600000020F0B585B0FD
:1008600000AFB960386005F01BF883000A33DB087D
:10087000DB006946C91A8D46041C684605F018F865
:1008800063000833DB08DB006E46F21A95466D46BE
:10089000281C7D6005F028F84F4B1B681A1C90320D
:1008A000116863290BDD012040428446181C002199
:1008B000A430654611601C38C56141620160116851
:1008C000013111601A1C8C32116863290DDD012081
:1008D00040428446181C0021A030116065468160AA
:1008E000191C056088310120086011680131116010
:1008F0001A1C9C32116801290BDD012040428446FC
:10090000181C0021B230654611601E38C583418431
:100910000160116801311160191C98310A68012ABF
:1009200009DD002201200A608A8340421A1C0883E4
:100930009432012111601A1C983211680131116042
:100940000022101C013C08D3A10071587D6840189A
:100950006100695A521892B2F4E7191CB2310024AE
:10096000AC251E19AC46B444FE6066463668864225
:1009700001D265462860FD68A4352E68864200D9FC
:1009800028608D88954200D28A800D88954200D9D2
:100990000A80043C251C02390835E1D11A1C883232
:1009A00012683E6892009A18111CA831A03209689A
:1009B0001268BD688A1A32801A1C94321268BD46C9
:1009C00052009B181A1CB432B03312881B88D31AF9
:1009D0002B8005B0F0BDC04600000020F0B5234FCD
:1009E0001D1C3B68161CDA6885B00191920000213D
:1009F000041C301C09F07AF83B68281C1A69002195
:100A0000920009F073F8019F002F0CD0201C04F015
:100A100085FD174B301C1B68291C5A69DB6906F0E1
:100A200015FE013FF0E7002C0FD1114B1B685F69E9
:100A30009B69029304F00EFC039004F015FC0299EC
:100A4000031C039A381C06F015FD301C291C019A62
:100A500006F072FE002C06D1054B201C1D6804F028
:100A6000B9FEF435286005B0F0BDC0460003002093
:100A700000000020F0B5274D87B02B680591DA699A
:100A800000219200039009F031F806F0E1FC049097
:100A90004478002C25D0042004F040FD28684269E9
:100AA0000292029B013B019319D383690199039E32
:100AB0005943C918890071180439013B0DD3866860
:100AC000029F7E439E19059F0136B600F2590E68BB
:100AD0009446B44467460F60EEE7019AE0E7013CB4
:100AE000D7E72F687D69013D11D3BC69039A261CA5
:100AF0006E433619B6009619043E013CF3D3049BAD
:100B000030685978FFF7D6FA00043060F4E707B090
:100B1000F0BDC0460003002030B52B4D85B02B68DA
:100B20001A1CD4321178603A002904D1191CB8314A
:100B30000978002901D000211170117800291ED0F8
:100B4000996F002001915A6B20490292DB6A01AA39
:100B5000039303234B707C235B42CB7010230B71F8
:100B600006F06EFB2B6800249A6FD96F8A4202DC74
:100B700001329A6725E09C67154B1C700FE01A1C28
:100B800075321478002C0CD01A1D0833D06FDB6F2F
:100B9000984203DC0130D0670C1C12E0D1670124BD
:100BA0000FE05A6BDB6A0B49019202930920642320
:100BB00001AA0B71039406F043FB2B689C67043376
:100BC000DC67201C05B030BD0000002010010020B3
:100BD000D40E002017010020F0B58FB004AF79606B
:100BE000BA617B61B86006F033FC934B69461B68C1
:100BF00038611C68F96104346400221C0832D20890
:100C0000D200881A5A68854604325200131C0833F1
:100C1000DB08DB00C01A04AE854604AD281C0021A9
:100C200008F064FF221C301C002108F05FFF834C99
:100C3000B86823685A69191C9B690090301D01909F
:100C4000281D02902C31B86903F072F83A69F860F7
:100C50002368127B5869191C01960295009268312D
:100C60002C33BA6903F0D4F9FB6978689D46236890
:100C7000DA69191C1B6A00902C31786902F0CEFFEA
:100C8000FE680643F6B23E6106F0EEFB051C06F078
:100C9000F9FE2D79012D0AD1B4300368002B06D15D
:100CA00006F0C2F9012802D0281C04F051F825688A
:100CB000281C291C68312C3003F084F9604A236811
:100CC0001268E8660C20115E986D88420EDC0E20DA
:100CD000115ED86D884209DB1020115E186E8842C3
:100CE00004DC1221525E5B6E934221DA00233B84C6
:100CF00020220123D35506F0A5F9002818D106F0CB
:100D00007DF9002814D04D4B1A68FF239168FE2905
:100D100001DC9368DBB22120C355381C022120304E
:100D200006F02CFA474804F0E1FF03F017FFE2E772
:100D3000414E4549336802241A6858680A709A6817
:100D4000CB7848707F20834380256D4223432B431B
:100D5000CB7053238A700B710132BB6952009A1811
:100D6000012006F06DFA336838491B697F204B700B
:100D7000CB787A69834323432B43CB7001206D23C7
:100D80000B7106F05DFA336820211A682120CA55DC
:100D90005968C1559A682220C255591DC97F232020
:100DA000C1551B6925202421CB55C35D7F218B4371
:100DB00023431D430132C319B869520082181D70C4
:100DC000391C0092002201202031131C06F0FEF98C
:100DD00001F0C6FF02F014F8FFF79EFE002827D1AD
:100DE000164C2368586904F073FC2368D86E04F02D
:100DF0009BFB04F087F9396900290DD12368B96993
:100E00001A1C2C321B68B86806F09CFB23687868B3
:100E10001A68796906F0EAFB022003F0C7FF7869D7
:100E200006F0D0FE2068703007F0F8FD002000E0EA
:100E3000201CBD460BB0F0BD0003002000000020C8
:100E4000D00E002010270000140400201001002004
:100E5000F0B59400231C0A3385B0DB08DB0069463B
:100E6000C91A02AF8D4602AA061C7A60101C002126
:100E7000221C08F03BFE231C0833DB08DB0069461C
:100E8000C91A8D4602AD281C221C002108F02EFE36
:100E90000C4C301C2368996A5A6A6833009101939C
:100EA000291C7B6807F0DCFD301C02F009F8236880
:100EB000301C5A6A9B6A291C00937B6807F016F85D
:100EC000BD46F7BD0000002070B50C1C151C1E1C93
:100ED00007F064FA144B201C1B68596A9A6A07F0E1
:100EE00063FB201C07F06EFF201C07F059FC321C2E
:100EF000201C291C07F010FD201C291C02F0F6FD07
:100F000006F0B2FA041C06F0BDFDA6300378002BF3
:100F100009D12379002B06D006F086F8012802D0EB
:100F2000012003F015FF70BD0000002038B508F067
:100F30006DFC051C012008F07DFC041C281C03F03E
:100F4000FBFC201C03F004FD38BD38B508F068FD3B
:100F500008F064FC051C002008F06CFC041C281C34
:100F600003F0EAFC002004F05DFB201C03F0F0FC21
:100F700003F0D0FE38BD10B5A4B08C22041C0021B3
:100F800001A808F0B3FD01A8211C07F001FD07F03E
:100F900029FD01A8211C02F003F824B010BD0000B7
:100FA000F8B506F06FFD2E4DA6302B680078197944
:100FB0004AB2002801D1501C04D10024DC60FF3368
:100FC0005C7014E0DC682748844202DCDC68013491
:100FD000DC60012A04D0DE681F690124BE4200DA09
:100FE0000C1CD968814202DDFF330121597063B2C4
:100FF000934209D000201C49231C0E33021C0B71A4
:1010000006F01EF9286804712B681A79002A03D1AA
:10101000164A1268127804E0012A03D1134A1268B2
:1010200052781A60186804F03DFE2B68041CF433F3
:10103000186804F05BFE241A002C0BDD2B6818687E
:1010400004F030FE2B68041CF433186804F04EFEE4
:10105000201A00E0012003F07BFE03F09BFEF8BDA8
:10106000000000202F7500001B040020D00E00207F
:1010700008B505F0D9FF002802D1022004F026FAB5
:1010800008BD0000F0B589B0061C06F0EDF905902A
:1010900006F0F8FC031CB0331A68A14B002A08D1F3
:1010A000B8300268511E8A41D2B20492002A06D09A
:1010B00001E0012004901A680021C03205E01A689E
:1010C000C0321168FE2901DC013111601B6800216A
:1010D0001A1CBC3211700499002904D09149096886
:1010E000097D00295AD0181CBB300178C9B20029EB
:1010F00008D003785BB2022B00D0012313700023C9
:10110000037070E11D1CB8352C78002C09D0012427
:1011100014701A1CB932C43301702970117019602F
:1011200062E10498002839D1191CC4310C68002CE4
:1011300009DD013C012C01D00C602FE0049B0B6009
:101140000323137050E11A1CF03212681188764A9A
:10115000914223D01A1CD0321188744A12685288E6
:101160008A421BD86F4C2068427C181CC030006833
:10117000904213DB07AA1180D2331B886C4953803D
:1011800002234B70CB70049815230B7106F058F8AE
:10119000634B22681B68927CC4331A60614C2768D9
:1011A000F87C002800D01EE104995D4D002900D094
:1011B00082E02C68231CEF331B78002B56D03B1C9D
:1011C0002C331B78002B51D0231C0791E4331B6870
:1011D0000393231CD03303981A8843009A533B1C73
:1011E0002D33197804984B00F618031C994206D049
:1011F0005A00B21A023A128801338018F6E7FEF755
:10120000A7FF0790FA8B231CE833904202DA1A6892
:10121000013200E000221A603A1C2E3212781B685C
:10122000934215DD42497C235B42CB7007AA16230B
:10123000012400200B714C7006F002F82B6800208E
:101240001A1CE432E8331060186006F03BF8CBE07B
:101250003B1C2D331A780399231C013AE433914245
:1012600002DA0A1C013200E000221A60CC34013795
:10127000FB7F22689A4217DB2E4900201223021CB2
:101280000B7105F0DDFF2A682648131CC833196866
:101290000068013119600230C07F814204DB002107
:1012A0001960BC32022313702A680023111CBA3162
:1012B000CC320B70136047E02B681A1CC4321060EC
:1012C0002A321278002A3FD0191CD031098807AA87
:1012D0001180D2331B881649538002234B70CB7088
:1012E00019230B7105F0ACFF2B682268191CD03153
:1012F0000C88D08B163984421ED2181CD230048838
:10130000508D844218D2097800291DD1CC33013286
:101310001968D27F914217DA0131196014E0C04692
:1013200000000020CC0E0020FFFF0000D00E0020A7
:10133000100100201B04002001220A70191C002249
:10134000CC31C8330A601A60294D2B681A1CEE3262
:101350001278002A47D105980279002A41D01A1C38
:10136000B8321478002C3ED1224ED86A3768798B77
:10137000BA8BFB8A3F8B009706F02EF836682B68F5
:10138000718CB28C071CD86AF38C368D009606F0EF
:1013900023F82B681A1CD0321188D233B94202DAF2
:1013A0001A88824210DB07AA11801B8812495380D9
:1013B00002234B70CB70002017230B7105F040FF08
:1013C0002B680122B9331A702B681A1CB9321278B3
:1013D000002A08D00499002905D0B83301221A70D8
:1013E00002E0B9331A700124201C09B0F0BDC046D8
:1013F00000000020CC0E002010010020F0B591B0BC
:1014000002AF03F093FA061C03F0A8FA386103F068
:1014100099FAB14BB8601C686846E36800211A1C51
:101420000E32D208D200801A226985460E32D208C6
:10143000D200801A02AD8546FD6102AD7D627279EF
:101440009A18131C0E33DB08DB00C01A53000E334E
:10145000DB08DB008546C01A02AD8546C01ABD61B7
:1014600002AD854602A87861B86908F03FFBE168E3
:101470007279281C521801215200494208F036FBAB
:10148000E36872799549D2185200786908F02EFB0A
:10149000E2683969F8693D6308F0E6FA3D69F020D1
:1014A000800029182269786A4024002508F0DCFAB7
:1014B000FC603D62796AF86905F030FA032004F0B7
:1014C0002DF8854D86492B68864C5A6818684A70F5
:1014D0009A680423CB7051230B7123688A705B696F
:1014E0000132920008709A18022005F0A9FE2B68BC
:1014F0007D491B6904254B705A230B712368022018
:10150000DA69CD7005F09CFEB479013C631C2CD0E7
:101510007579013D6A1CF8D0737978696343EB18DB
:101520005B001A5A714B9A42F3D0B9693022796044
:10153000F9627863D219694609CA09C1211C7B681E
:10154000F8692A1CFFF708F8002803D03B6A01332A
:101550009BB23B627379BA6963433869EB18D15C1B
:10156000C25C8A18F969CA54D3E7F479013C601C5B
:1015700030D0B17973797D694B43E3185B005A5BD6
:101580005A4B9A42F2D0BD6930207D60FD62C0198D
:101590007D6984467D636846624628CA28C0221C4D
:1015A0007B68786AFEF7D8FF002803D03B6A0133D6
:1015B0009BB23B627379B279BD695A432B193D697D
:1015C000F0202919800009189A5C0B787D6AD318DD
:1015D0002B55CBE7404B3C6A1B68DA681B69D31874
:1015E0009C4206DAFB68013BDBB2FB60002B00D0BB
:1015F00060E73B4CB3797F2523707379802063705B
:10160000A370E3784042AB4301252B430343E370CF
:101610000820D223211CFA69237105F011FE3249FA
:10162000F3797F224B70CB78082093431D438023AE
:101630005B421D437A6AD323CD700B7105F000FE27
:10164000B379251C013B0FD37279013AFAD3717932
:10165000FC69594389186118BC68E018A4300C78FB
:10166000007820180870F0E7F379013B08D3BC68D4
:10167000E2187C6AC8321178E25C8A18E254F4E716
:10168000F869796A05F04AF9B3797F202B7073798C
:1016900001216B70AB70EB78802483430B43644271
:1016A0002343EB70291C1D23FA6908202B7105F0D8
:1016B000C7FD0D49F3797F224B70CB780125934309
:1016C0001D432C431E2308207A6ACC700B7105F051
:1016D000B7FDBD460FB0F0BD00030020FFFF0000C6
:1016E000140400200000002010010020FEFF000074
:1016F00008B503F027F998300378002B02D1FFF7E3
:101700007DFE01E004F03CF908BD0000F0B591B0A9
:1017100002AF05F06BFC041C08F0C6F808F044F9B1
:1017200001F01AFBFFF760F805F060FC061E052EBD
:1017300000D1CDE0052813D8022800D18EE005D8CD
:10174000002823D001287CD0341CEDE7032800D1E9
:10175000B0E00428F8D105F0A5FC01F035F9B2E0BD
:10176000092800D1D1E007D8072800D1B9E008281E
:10177000EAD105F097FCBEE00B2800D19BE100D236
:10178000D5E00C28E0D105F08DFC9DE105F04CFC86
:1017900000281AD00128D7D108F0B8F808F004F9C9
:1017A00001F0DAFAFFF720F8CA4D02222B68196916
:1017B000186AB961C849F8611A621E61301C3F237A
:1017C000321C0B7105F03CFD2AE008F06DF808F0C2
:1017D000EBF801F0C1FAFFF707F80125012D02D05F
:1017E000022D0AD00FE0002000F07AF903F0AEFCE1
:1017F000C0B205F073FDFFF77BFF0020211C021C27
:1018000000F01EFE051C05F00FFC00289CD105F021
:10181000EDFB0028E2D097E705F0E8FB00280AD1AD
:10182000FFF766FF211C0122002000F0DBFE05F01F
:10183000FBFB0128F0D02B68FC691C62BC691C61B1
:1018400082E705F02FFC05F0D1FB0128FBD008F062
:1018500007F8FEF7C9FF05F0BDFA75E7FFF766FB6D
:1018600005F08AFB002003F0DDFE03F071FEFEF7B9
:1018700045FEFFF73DFF05F015FC05F01DFC0428B3
:101880000CD004D800280ED001F0A0F80BE00528F9
:1018900007D0062807D103F03DFA04E005F0D6F89A
:1018A00001E003F025FA05F0A1FB0228E5D0FFF7DF
:1018B0004CFB49E705F0F6FBFFF71AFF05F096FB36
:1018C0000328FBD040E705F091FB0428FBD03BE761
:1018D00005F0E8FB03F092FF05F088FB0528FBD03C
:1018E00032E705F0DFFB012000F0FAF805F07EFB9F
:1018F0000728FBD028E7002003F010FE03F0A0FE2D
:1019000005F074FB0828F6D01EE705F0CBFB00209D
:1019100003F0F8F8002003F001FE03F091FE05F05B
:1019200065FB0928F6D0012003F0ECF80CE76C46C3
:1019300000203C6108F06EF808F036F8002003F053
:1019400071FE644C694623685D6818681B694543ED
:10195000EB180733DB08DB00C91A8D4602AAFA61CF
:1019600002F0E4FF02F0FAFF02F0ECFFFB695D1900
:10197000181C291C7D6103F0D1FF23686C465A684E
:101980001B69D3189B000A33DB08DB00E41AA54669
:1019900002ACBC6105F086FB4E4C20202368196820
:1019A0001A79C15521202221C255CA555A1DD27F0C
:1019B0001B6923202421C255CB5525220123D35551
:1019C000FB690022391C00930420131C203105F010
:1019D000FDFB7969F86904F0A1FF002003F09EFD8A
:1019E00023683E485C6805687C60002139603A687D
:1019F0007C68A24208DA3A68A96992008958BC69F1
:101A0000A15039680131F1E7A200BC691969A41835
:101A100005683960A44600223868824206DA296ADD
:101A200090000958644621500132F5E71A682821D0
:101A3000CA5578689A6829242A21E055CA55053381
:101A4000DB7F2B24E35504242D233968DC55234BFD
:101A500001321B6892005B692C209A18C1550092D4
:101A6000391C0022131C0220283105F0AFFB012392
:101A70003020C355174B31211B6832201A79CA55C3
:101A8000C2555A1DD27F1B693321CA553422D35502
:101A90003523DC55BC690022391C10203031131C61
:101AA000009405F093FB05F0A1FA0A2800D173E732
:101AB0003C69A54648E605F0F5FAFEF7D5FD05F0C8
:101AC00095FA0B28F9D03FE605F090FA0C28FBD0E8
:101AD0003AE6C046000300201B040020000000205E
:101AE000F0B5D24C9BB0236800AF9B6878617B62F5
:101AF0005B0001333B6503F019FB2368FF229B6801
:101B0000F865D31A984200DDFB65F86D7C6A041B0A
:101B10003C626C4603F012FBFC643C6D6846650059
:101B20002B1C0833DB08C24CDB00C01A0123637096
:101B30007C235B423A1C8546E370211CB1230020C4
:101B40005C3223716E4605F07BFB0023211C3C6D4B
:101B5000A34205DA3C6A5A001819B0520133F6E77D
:101B6000E4B24C70FC610024321C0223201CCB70B8
:101B70000C7105F065FB2B1CF86C08338546DB08FF
:101B8000DB006946C91A8D46C91A68468D46B96395
:101B9000386403F085FE3861012003F069F9211CE7
:101BA0002A1CB86B07F0A2FF211C2A1C386C07F016
:101BB0009DFF3B6D68469B00BB610A33DB08DB0081
:101BC000C01A396985466A46C01A89007A63854613
:101BD0003863B960FC640021BA69786B07F086FF4E
:101BE000386BFF21BA6907F081FF00248F4B7C65B9
:101BF0001B687C6D5B689C424ADA3C6A0026E4B252
:101C0000201CFC6303F0A7FA03F070FA03F026F936
:101C10003C6B7D6B386D0136F217C30F8642534122
:101C2000DBB2FB62002B06D1F96B8819C0B203F05E
:101C300092FA03F05BFA6B46FB60BB686A460A33B4
:101C4000DB08DB00D01A85466A46BA6403F030FE32
:101C500000231A1C39698A4205DAB86C9100415890
:101C600001325B18F6E72A68934200D92B6020689E
:101C7000834200D22360F968FA6A8D460434043541
:101C8000002A02D103F0EAF8C4E77C6D0134ADE725
:101C90000024684D7C653B6D9C4217DA796B3A6B8A
:101CA000A300C858D358C01A854204DD3B6A051CFE
:101CB000E318BB627C64796D814200DA786503F0D9
:101CC000C1F83A6C6300D0520134E4E7786D03F058
:101CD000B9F8564B1B685B88984206DA7C69012C80
:101CE00003D0FC6DBC627C6A7C64534D32222C684C
:101CF000796C231C88335A6064229A600122022086
:101D00005A613A6B81408A58002618611E60101C87
:101D1000DE607A60F96303F095F8A034FB6B796BB1
:101D2000206058582C6803F08DF82B68A834206088
:101D30001A1C01217C69B2324942B63311801E80DF
:101D4000012C22D1BA6B331C3C6DA34209DA3C6CE6
:101D50005900615A1088884200D211800133023242
:101D6000F2E77C6C6300BC6B1A5BFC6C131CA24238
:101D700000D2231C2E499BB2FC69FB640020022385
:101D80004C70CB700871BA6B0CE0786D03F05AF8A8
:101D9000274980B2FC69F8643A6C0220C8704C7024
:101DA0000E71301C05F04CFA7C6C6021CC53BC6A7F
:101DB0006220C453786C396C44000C192388F86C89
:101DC00064221B49D3536623D85304234B703A1C17
:101DD0000223CB706032B22300200B7105F030FA81
:101DE0002388154C2268111CF03109680988994232
:101DF00026D207F015FE051C07F026FD0378061C09
:101E0000002B07D0012005F05DFA23680236F0337D
:101E10001E6026E0002D24D1084B1B68DB7C002BC4
:101E20001FD1012005F042FA1BE0C046D00E002071
:101E300010010020FFFFFF7F00000020CC0E0020DB
:101E4000EF321278002A0CD00E4D29684A889A4247
:101E500007D9002005F036FA23682A68F0330232E9
:101E60001A607C69002C06D1BC6AE0B203F073F9F9
:101E7000BD461BB0F0BD05F0B9F8072800D1AAE6B1
:101E8000F2E7C046D00E0020F0B585B00092039175
:101E9000029007F0C5FD061C05F0E4F8071C05F0EC
:101EA000E9F8734D01902B681A1CEC321278BA4293
:101EB00020D0002F08D06F4900203B23021C0B715B
:101EC000022605F0BDF910E001993C1C00290DD156
:101ED00068493C23381C3A1C0B7105F0B1F92B689A
:101EE000EE331E78731E9E41F6B201242B68EC334C
:101EF0001F701DE01A1CED32127801998A4216D02B
:101F0000002906D1EE331E78731E9E41F6B23A23A5
:101F100001E03923022657490020021C0B7105F00D
:101F20008FF92B68019AED331A70012400E0002428
:101F300005F06CF8071C05F08DF8009B032B02D010
:101F4000002F03D107E00124002F36D0002005F038
:101F500065F8012431E02B68EC331F88002F2CD169
:101F60000099012902D0022904D00EE0009805F062
:101F70009DF90AE0381C05F099F92B68EF331B78BE
:101F8000002B02D0381C05F09DF905F089F92B686B
:101F9000071CEE331B7883420FD0002802D0112398
:101FA000012601E01223061C32490020021C0B719D
:101FB00005F046F92B68EE331F7007F031FDB04293
:101FC00039D007F02DFD07F029FC071C301C07F065
:101FD00025FC009007F024FD301C07F01BFD07F0E6
:101FE000E3FC254B1B681B7D002B10D0012C0ED071
:101FF000009B3A1C9B329B330399029805F060FBCF
:10200000002003F08BFA0024FEF706FC06E02B68A4
:102010000020D433187003F005FB0124002005F0E4
:1020200051F92B6800211A1CEF321170134AF0335A
:10203000126802321A6007F0F3FC07F005FC03781F
:10204000002B08D005F038F92B68EF331A7882425C
:1020500001D01870012405F015F8051C05F012FDDB
:102060000379AB4200D00571201C05B0F0BDC0461D
:10207000000000201B040020CC0E0020D00E002009
:10208000F7B5434C151C236801911A1CB93212781C
:10209000061C002A23D01A1CEE321278002A1ED108
:1020A0001A1CD4321178002919D1B8331B78002BAF
:1020B00015D10123137002F045FC071C02F036FC19
:1020C0003A1C031C9B325D33301C019905F0F8FA71
:1020D00003F0F0F9022003F0F9F9FEF79DFB236805
:1020E0001A1CD4321278002A4FD01A1C294F002013
:1020F000B83210703A680190126A011C013A0ED38E
:102100000E265643B446AC446646B688002EF5D03B
:1021100036B20131B042F1DA301C0192EEE71A1CFE
:10212000EE321278002A13D1012911DD05F0AAFC44
:102130000123B03003603B681B6A013B0AD3019E58
:10214000B342FAD00E225A430021AA189180F4E734
:10215000002904D023680022DC331A6008E01A1C2E
:10216000DC32D83311681B68994201DC01311160FF
:102170002368191C1A1CDC31D83209681268914294
:1021800005DDB83301221A7001E0DC331A60F7BDB7
:102190000000002000030020F0B5A14C91B002AF78
:1021A000FA612268FB60136892689D1C52005543D7
:1021B0007960694639605208291C0133534308315C
:1021C000C908984EB860C9006846401A8546013370
:1021D000306802A95B00CB18B9613C2200212C3089
:1021E0007B6107F083FC2A1C0021B86907F07EFCA4
:1021F0008D490020A623021C0B7105F021F8FEF783
:10220000CFFE3168081CD030D231FEF727FB23689F
:10221000864D5B6804226B705B232B713368EA7018
:10222000291C9A69022005F00BF82368291C1B69F8
:1022300002206B700423EB706C232B713368002534
:102240001A6A04F0FDFF336879491A1CD0321288EB
:10225000D233FA621B883A1C3B630C2001232C32D8
:102260000B717D6304F0ECFF23682420196825229C
:10227000C15558682621D0559A682720CA55591D3E
:10228000C97F1B69C1552821CB5504202923D85566
:10229000336801325B6992009A18391C009202205F
:1022A00024312A1C2B1C04F091FFB8687968BA69A4
:1022B0007B69FEF791FCB861A84200D08DE02668EA
:1022C0006A46F36A3A611A01131C08336946C81A50
:1022D000854602ADB969281C07F008FCF26A281C83
:1022E000F969FEF7B5FD236869469A6A0E235A43D9
:1022F000131C0833DB08DB00C91A8D4602ACB96930
:10230000201C07F0F3FBFB68281C211CFA69FEF770
:10231000DBFD386DFEF7B6FE464B1B681B7D002BC0
:1023200004D1B8687968221CFFF7AAFE201CF9695D
:1023300000F0E0FF201CF96900F032FE06F090FE8C
:1023400083000733DB08DB006A46D21A954602ABEE
:10235000FB60334B061C1D680E22A86A7E61031CBD
:10236000013B5343E418F8610434F8690138F8611B
:102370000FD30021635E002B09DD7A69FB68013A07
:1023800090007A611818211D042207F06DFB0E3CA5
:10239000EBE72A682C21CA5568682D23D855AB680D
:1023A0002E21CB550535EA7F2F20C2553021002242
:1023B000CA551C49013309687E22896A5B00CB1823
:1023C00052423120C255391C00932C31F2B2032005
:1023D000FB6804F0FBFE39698D463A68954602F0C9
:1023E00033FF03F067F802F00BFD012003F096F8CD
:1023F00002F050FE0B4BBC221B68B8689A567968F5
:10240000FFF742FD002800D1B8690B4B1A680B4B4F
:102410009A4202D003F0F2F9FEE7BD460FB0F0BDDC
:1024200000030020000000201B04002010010020F9
:1024300017010020CC0E0020080F0020CDCDCDCDFF
:10244000F0B5494C8BB0236802AF1D68B96059687C
:102450007A604D430A229A622822DA621B696A4630
:10246000EB189B000A33DB08DB00D21A954602AB5F
:10247000F860BB6105F00CFB236869469C6AAD00FF
:10248000E200131C0833C91A8D4602ABA400FB619D
:10249000231C0833DB08DB00C91A8D4602A9396109
:1024A000F869002107F022FB221C0021386907F09F
:1024B0001DFB2E4E002433686946F8331C702C4BEC
:1024C0001B682D331A785200131C0833DB08DB001D
:1024D000C91A8D4602AB181C211C7B6107F006FB54
:1024E00004F0B6FFB969BA694D192B1C4178201C5C
:1024F000FEF774FABA68FB689A4201D004F0D2FD84
:1025000033689C6004F0E4FE041C02F01FFEA0424D
:1025100004D0201C02F01FFE02241DE07969009106
:10252000FA69291C3B69B869FFF736FE0F4B114A5F
:102530001B68041C9968914202D09A6801329A6023
:10254000002809D104F070FD7A68904204D104F0AB
:102550004DFDFB689842D5D0F869FEF70CFD201CB4
:10256000BD4609B0F0BDC0460003002000000020B9
:10257000CC0E0020FFFFFF7F184BF0B51B6885B025
:102580001E689B68B41C5B005C4300AF221C5B08A8
:10259000FB600832124BD208B86079601868D2002C
:1025A0006946891A8D463C2200212C3007F09EFA9C
:1025B000221C6846002107F099FAFA68731C5343FD
:1025C00001336D465B006A46EB18B8687968FEF720
:1025D00003FBBD46C0B205B0F0BDC04600030020FD
:1025E00000000020F0B5BF4EEBB033680D1C1C6836
:1025F000596802AF4C437A600A229A622822DA6252
:102600001B696A46E3189B000A33DB08DB00D21A19
:10261000954602ABFB61F86002F0A6F9B86005F0E0
:1026200037FA381C00211022503007F05FFA0023DF
:10263000FB633B64336869469A695B69A400534352
:102640009B000A33DB08DB00C91A8D463B1C02AA3B
:102650006033BA617B6404F0FBFE061C03F0E8FC07
:10266000FB6905201C197C611A1C7178231CFEF77C
:10267000B5F904F005F89C4CB86923685969FEF770
:10268000F9F9F9688D4201D004F00CFD974900205A
:10269000A223021C0B7104F0D3FD22680023936077
:1026A0001C1C7B62FB6204F013FEB86202F04EFD5C
:1026B000BA6A904204D0101C02F04DFD022673E16C
:1026C000002C7BD1874B69461B6839619A695100A0
:1026D0005A6901324A43131C0833DB08DB006946A0
:1026E000C91A8D4602AE301C211C07F0FFF9FA6AA8
:1026F0007D4D082A08D103F0C3FF2B68B8695969DA
:10270000FEF7B8F9FC6255E0042002F007FF2B68E1
:10271000301C5969BA6905F06BF8051E012D0FD1FF
:1027200003F086FC052002F0F9FE7049A323201C6B
:10273000221C0B7104F084FD00232C1CFB6239E089
:102740006B4D311C2B68B86933331A7805F014F9D6
:102750002B68796A33331B785B0099420ADD03F0FA
:1027600067FC05200121FA697B69FEF737F903F060
:1027700087FF7C62BE685E4D943633687A6A3B623E
:102780002B6801327A623233187802F0E4FC02F0EE
:1027900017FF02F0F7FC2B683333187802F0E4FAE5
:1027A000002002F003FB396AB86A316002F0D3FC02
:1027B00002F00CFD3A6900269546DFE04C4A4A4B90
:1027C00012681B68343212784E211A60CA5D012AE1
:1027D00001D10A221A60186802F0C6FA052002F038
:1027E00075FEF8697969FFF7C7FE0124061E00D05F
:1027F000C4E03C4D6B462C683B61E16A0A01131C46
:1028000008336946C91A8D4602AB181C311CBB62DD
:1028100007F06CF9391CE26AB86A5031FEF718FB10
:102820002B6869469A6A0E235A43131C0833DB0847
:10283000DB00C91A8D4602AD311C281C07F056F981
:102840003A1C3B1C50323C33B86A291CFEF73CFB57
:10285000A91C281C06F058FB281C291C0E3010311E
:1028600006F052FB391C281C4431FA6A06F020FCA1
:10287000F862032803D007282BD1182405E0381C60
:10288000443006F0FFFE041E26D004F0D5FB184BA2
:102890001B689B6B18400123A340034219D03023CF
:1028A00002213122D819D955D45504F067FC02F021
:1028B00001FE012002F04CFA0C490020A223021C68
:1028C0000B7104F0BDFC03F0DBFE08230024FB6267
:1028D00052E0F96A08290DD002F0ECFD012402F063
:1028E000B3FC49E000030020000000201B0400208E
:1028F000CC0E002004F0CEFB00282ED00224381C81
:10290000221C2D49303007F0AFF8381C211C303024
:1029100004F034FC052004F053FC4822D35D34213C
:10292000CB553623DC55352200233721D455CB55E2
:1029300038223921D355CA5D7F218A43144380222E
:10294000524214433922D4553A1C6032391C009249
:10295000052034311A1C04F039FC02F0ABFD0120D3
:1029600002F0F6F915490020A223021C0B7104F0B5
:1029700067FC03F085FE002439698D46104B114A2F
:102980001B689968914202D09A6801329A60002EC1
:102990000AD104F049FB7A68904205D104F026FB85
:1029A000FB68984200D17EE602F084FD03F02CFB28
:1029B000301CBD4669B0F0BD289B00001B04002000
:1029C00000000020FFFFFF7F70470000F0B5CC4DF6
:1029D00099B02B6800AF5C68F8641868BC6360430A
:1029E000021951000831C9086600C9006C46641A12
:1029F00091000A31BE647863A546FC624600C908AE
:102A0000201CBC6BC9000732401AA400D2083C63EA
:102A1000D200441A85467864A01AA5468546DA682D
:102A2000BC6200216C463C6207F060F82B68786B52
:102A30001A690021684407F059F82B680021DA6808
:102A4000786C920007F052F82B68786B1A69796CF1
:102A5000840092000819002107F048F82B68A94962
:102A6000DA68B86A920007F041F82B68BA6AA5499B
:102A700010191A69920007F039F8FDF727FDFD6C6F
:102A8000022D05D0032D05D02F30012D05D102E0F8
:102A9000303000E031300078F8633D6BAD08FD6107
:102AA000BD6C6D08BD61FD6B013D3D637D6C2D19F5
:102AB0007D6275083D61FD6AAE19FE60BE6A34191B
:102AC0007C613D6B8E4C013500D1AAE0002002F004
:102AD00025FD25688C4B6C681E68013C5DD3A00009
:102AE0002B68B860591EB964F7D3A96872694B4363
:102AF000E31801339B009858FB6C022B0AD0032B80
:102B000022D0012B47D1B169BA688B58C01AC34390
:102B1000DB171840B96CFB697A6C4B43E3189B00D8
:102B20009A58796C80183A6B5850002A33D1B96C96
:102B3000BB694B43E3185B00F96B3B64FDF7BAFAE2
:102B40003A6CFB6AD05226E0B96CFA694A43A31882
:102B500099007B6CC958031E8B4200D20B1C796C08
:102B6000A21892005350B96A5258904200D9101CD2
:102B7000B96CFA694A43B96AA21892005050181AFF
:102B80007F22FD2801D84008C2B23B6AB86C1919EF
:102B9000BB6B4343CA54BB6CA4E72E695A4B741EEB
:102BA0001D68A400013E38D3EA69FB6C1059022B62
:102BB00009D0032B16D0012B2DD1296A0B59C01A2D
:102BC000C343DB1718407A6A7B6A1259396B801845
:102BD000185100291FD1F96BFDF76CFAFA687300E0
:102BE000D05218E07B6A1A59031E934200D2131C7C
:102BF000796A0B5179690A59904200D9101C7A6997
:102C00001051181A7F22FD2801D84008C2B2386A34
:102C1000796B43189A55043CC4E73C6B013C3C6318
:102C20004FE7FE6AFD6CBE64022D06D0032D61D015
:102C3000012D6DD100F00EF96AE001F077FE381C2D
:102C400032491022503006F00FFF03F025F82168BA
:102C50002D4B0E68F863BD691868331C013B5D435A
:102C6000FE6484467D64FE6C013EFE6422D34B68A4
:102C70007E6CFD6AF01840005E002818BE630022DA
:102C8000023A013B11D3FD6BBE6B6D003D6465469E
:102C9000AD69B6187E63760076593D6C5035ED5BB4
:102CA000AE1B855A75198552EAE77E6CBD69761BA5
:102CB0007E64D8E70B693E69134AF118FE6A490041
:102CC000580015687118F8640022023A013B0ED3CF
:102CD000FE6CB0182E6A400080598E5A361AB446DF
:102CE000FE6B70005030C05B60448852EDE700F02E
:102CF000B2F80DE03D6ABD6400F0AEF8012308E0D3
:102D000000030020FFFF0000000000202A9B0000BD
:102D100002232268502610685124F055117952255B
:102D2000E155E955511DC97F5326F15512695420CB
:102D30005521C255CA5D7F218A43134380225242E6
:102D4000381C134350305522B96CD35504F0BCF9EC
:102D5000BD4619B0F0BDC04608B504F0A5F808BDE1
:102D600038B504F08FFE234B1B68DA6A002A03DDB6
:102D7000596BCA420AD510E0002A07D11E490968DA
:102D800014254C5F5D6B0121A54207DB1B49042420
:102D900009788C428941494200E001211C1C7434AD
:102DA0002170052A12DD996B13291FDCD2225200F3
:102DB00081580A1C013A1CD3940004197D34FF3455
:102DC0002468012CF6DC0129F4DD0CE0032A0DDC7B
:102DD0009A6B0C2A0ADCD22252008258002A05DDA6
:102DE0001D6C022D05DC7533012201E075330022D4
:102DF0001A7038BD00000020D00E0020D40E002034
:102E000010B504F023FE124B1B68D96A1A1CF83265
:102E1000002915DD041CF0342488A14210DA642452
:102E2000EE30614300885C6B6043C14208D5191CD9
:102E3000EE310978002901D1012100E00021117053
:102E40001278002A02D0743300221A7010BDC046D6
:102E500000000020704770477047000008B502F07E
:102E600077FB01F08BFE01F03BFE01F0EFFD0F4B15
:102E70001B681A7A0E4B1B68E833002A01D0022225
:102E800000E003220B491A6000230B700A49A022BC
:102E90000B700A49D2050B709363D36B9B0E9B0694
:102EA000D36362B603F010FB08BDC046E00E0020FD
:102EB0000801002029000050280000502A0000507E
:102EC00038B5041CFDF714FB051C04F0BFFD291CDC
:102ED000F8310B78002B24D0124B00221B68DB6AE0
:102EE000013B07D3180120180825405F0028F7D1BF
:102EF0000122F5E70C4B1B68D86A002811D15D6BE5
:102F0000002D0ED1FC33002A0AD01A68FE2A01DCFB
:102F100001321A601B68052B03DD00230B7000E0F3
:102F20001A6038BD000300200000002070B5051CA9
:102F30000C1C161C04F0EAF8002802D001280AD064
:102F40002DE00E225643AD19EA88FF23FE2A00D851
:102F5000D3B2637123E00E227243AA18D188FF23F3
:102F6000FE2900D8CBB263710B250A23D3565557DF
:102F70000926ED1A08239657D356F61AB54207DDEF
:102F8000281C0521FDF7E4F84519A571E67106E056
:102F9000301C0521FDF7DCF88619A671E57170BDBE
:102FA000F0B5C34B8DB01B6806909F6807910597DD
:102FB000DF6803971F6904975F6902979F6904F0B0
:102FC000ABF8BC4B01201B68EC331B780190002B45
:102FD00059D00021079D069C01910E1CB64B1B6821
:102FE0001B6A9E424FDA2B8809A803806B884380B6
:102FF00005F0B8FF0422A35E002B40DD238868465D
:1030000003846388438408A805F0ACFF6A46202344
:10301000D35E059898420BDA0399994208DD684619
:103020002222825E0499914202DA0298904221DCC7
:1030300004216A5E002A1ADDA04A12689219403201
:10304000127852B2012A12DD0598C21B9A420EDA9A
:103050000399CA199A420ADD6A462223D35E04986C
:10306000C21B9A4203DA0299CA199A4205DC00236C
:10307000A38004E00122019201E0012301930136C3
:1030800008350E34AAE70127069D079C0297002603
:10309000894B1B68186A864200DBD1E0238809AFA0
:1030A0003B806388381C7B8005F05CFF04202B5E2E
:1030B000002B00DC95E02B8869460B846B8808A800
:1030C0004B8405F04FFF6B461B8C6A460393528C72
:1030D0000020395E10B2049205900222B85E059F6E
:1030E0001BB2381AC217591A80185040CA178F18C5
:1030F0005740724A00971768BA1978321279944685
:103100006F4A61461268002901D14C3200E04D320D
:103110003F79127807970421675EA9888C46079942
:10312000002913D1002F05DD904203DA009F97425A
:1031300000DA7AE0019F002F77D00E2B75DD5C4A14
:10314000126812680E3A9A426FDD09E0002F04DD22
:10315000904202DA009F974267DB019F002F64D004
:103160000AAF3A78802040421043DF210840297B93
:1031700001221140402210431022904309010F22E6
:1031800001430298914301431B1239701340079386
:10319000059B79781812079B91430B43134000015C
:1031A0001843787003986346B87004991AB2F9709E
:1031B000FF2A00DDFF233B71321C0698391CFFF704
:1031C000B5FE381C03F0B2FF0423E25E3B4B1B68E4
:1031D0009B197833002A01DD012200E000221A71D8
:1031E0001DE00420235E002B1FDD0AA800230299A6
:1031F000436040230B4303703A880123FB5603923C
:10320000032179569C4662467B880F2717400901A7
:103210003943039F41708770C37003F087FF2B8889
:1032200023806B886380EB88E380AB88029AA3805D
:1032300001320F231A4001360E350834029227E777
:103240001B690F255C1E1D401C4E621C3AD0316864
:103250006700CB191A1C90320020125E8633002AB8
:103260000FDC1B881AB2002A16DD00210AA80A9179
:103270004160802129430170FF2A00DDFF23037193
:1032800008E000215B5E002B06DC0AA800230A93FD
:103290004360057003F04AFF3368013CDF193B1CB3
:1032A00086373A8890331A80013D0F23CBE7C0461A
:1032B000FC0E002000000020000300200803002076
:1032C000F80E0020336801201A1CB0321168083251
:1032D000002902D11068441EA0411C1CA634207095
:1032E0001268181CB430BC3301601A6003F032FF5E
:1032F0000DB0F0BD70B5124B051C1B680C1CF233F1
:103300001B78002B1BD00F4A1368161C191CB431F4
:103310000968002905DDBC331B68002B01D105F0CD
:1033200061FB33681A1CBC321268002A07DDB43313
:103330001B68002B03D1281C211C05F029FB70BD44
:10334000FC0E002008030020F0B591B00E9108900B
:1033500004F08AF804F090FBC44B01211B68089C20
:103360001A1C5A321278002591401A1C5B321278CE
:103370005C33891A1A7809958B1ADBB20F93BC4B10
:103380000E221B680A950C93C0330D93B94B196834
:103390000B6A5A43A2180E3A013B0BD3D488099EFC
:1033A000A64200DA09940427D45F0A9DA542F2DA06
:1033B0000A94F0E7B04B3E301B68FF335B78012B7B
:1033C00001D1042300E0022303700B6A089F013B34
:1033D0000593059E0E237343FB1806330793059F41
:1033E000013700D1B7E0079C023C0025635F0694DB
:1033F000002B00D1A8E09D4E079F336838881A1C27
:103400004E321969157824333A3A03F0F6FF041C5A
:10341000FDF76EF8F8300378002B05D033683533AC
:103420001B789C4200DA1C1C33681A1C4F3212783D
:10343000002A01D1642245E02A1C0C9D7535FF3518
:10344000287800281CD1069F64210026BE5F171C27
:10345000714367438C460C996D31FF31BC450DDDDE
:10346000A6420BDC854F0E683F6801360E60DA37E6
:103470003F78BE4204D101262E7000E00020086093
:103480000C987530FF300178002915D0069E0C99F4
:103490000025755F6D31FF31A5420BDD0D681E1CE7
:1034A00001350D603E363678B54205D100250570F0
:1034B0000D6001E0002008600C997531FF3109783A
:1034C0000029B7D06A49059F0968069DC819403090
:1034D00006780020285E002E05D01D1C3E352D7874
:1034E00076B2AE421ADC642545435443A5420FDB55
:1034F0001A1C44321278099F079E7A43348892112D
:10350000944205DB9B6C0A9C63439B1198421BDA37
:10351000079D069E00232B8033800CE034331B78FC
:10352000574D5C436843624390420DDA079F069C07
:1035300000233B802380059A143292008A18B03110
:1035400053600B68013B0B60059D079E013D0E3EDD
:103550000595079643E7464B00221B680E9DB03346
:103560001A60444B1B681B6A5C1E0594059EE200B2
:103570000E247443AF18089D0C2272432C193F335C
:103580000C9D0D9E5B00EB18B218C2330792099395
:10359000059E374D013600D102E20426A35F334A6F
:1035A000002B00D1BDE1059E2D681268A9190B1CE6
:1035B000403318783E320130C0B21870127840B2F1
:1035C000961DB04201DD04321A704023CB56012B08
:1035D00005D123883B8063887B80E388FB80059E40
:1035E000AB1940269E57012E00DC82E1B01C03215E
:1035F000FCF704FE0A91022E44D11E4B00203A5ED5
:103600001E6802217B5E69692D6930686D10551B4B
:1036100076688C46E917013E6D1836024D40761BE0
:103620007F2E0ADD65466910591ACE1701388919AF
:1036300000027140401A7F280DDC0021605E801A74
:103640000222A15EC91A04F077FE0B2803D93B8839
:1036500023807B8863800323013B1BD32188079D44
:103660005A00A9526188AA18D180F5E7F80E002007
:10367000080300200003002000000020FC0E0020B2
:10368000102700000A9E079D3A887300EB181A80E5
:103690007A88DA80D34B059E1B680221655E9B19F0
:1036A00040331B780020265E5BB20893032B00DCBE
:1036B00015E10A9A07985300C3181988101C0D9138
:1036C000043003210693FCF799FD079A4B00D318A9
:1036D0001888DB88069A0E93089B8446D188042BB1
:1036E00008D10022B85E301AC317C018584002260D
:1036F000BB5F09E0099B0020185E301AC6178019CD
:103700007040099E1423F35EED1AEA17AD18554078
:1037100023884019099D059E2B806388B24AAB829D
:103720000C9DAB193933FF331D78002D06D0156879
:1037300062352D88A84208DC002505E0156864354F
:103740002D88A84201DB01251D701B78002B2BD191
:1037500012688021131C603212885E331B8800922D
:103760004A0003F039FE069D061C0020215E002061
:10377000285E0B1ADD175A19069B6A4094460222EE
:10378000A55E06229A5EAD1AEA17AD18554065444B
:10379000321C2B1C05F06CFC069B20800222A15ED3
:1037A0000620185E321C78E00D9E6046B5B22B1ADA
:1037B0001BB2DA0FD3180E9A89B25B100D938B1AD5
:1037C0001BB2DE0FF3180020265E5B100896022065
:1037D000265E0E930B960D9EAB19089D1BB2EB1A3D
:1037E000DE170E9D9B19734049190B9E09B2711A81
:1037F000C817091841405B180025802B01DD1D1CEE
:10380000803D0A9803210530FCF7F8FC079E764BB3
:1038100049001B687118039106991A1C0020085E64
:103820005B320F99167801321278414303980A925D
:103830000022825E0898724389180A9A42438818C7
:103840001A1C5A3212780699104104900620095E1B
:103850000F985D334843844603981B780621415EE8
:103860000B984E430A996644414376180E991641C7
:103870005943114176180D994B4313411A1C049B6F
:10388000089998188022D2002B1C05F0F1FB8022A9
:103890002080D2000220215E301C2B1C05F0E8FBAA
:1038A000514D60802B680421785E0422A15E0433B0
:1038B0003E269A5F431ADE179B19734005F0D8FB2A
:1038C0002B68A080F888E18804333E255A5F431AAC
:1038D000DE179B19734005F0CBFBE08009E0002068
:1038E0003B5EF6187610268002217B5EED186D1087
:1038F00065803C4B3C491A68059D09685319402076
:103900003E3118560978884203DC01225242A280D7
:1039100003E0B032116801311160483300229A701F
:1039200032E02E680599126870180692021C403227
:1039300000269657B446069E3E363678B4451CDDC2
:103940000426B95F00291FD0483086780136F6B2C8
:103950008670069976B23F3109788E4213DC3B8837
:1039600023807B886380BB88A380FB88E3802B68EF
:10397000B0331A6801321A6006E00C9D059E137080
:10398000AA193932FF321370059D079E013D059536
:10399000099D0C3E023D083F0E3C07960995F7E550
:1039A0002B680022B8331A60104B1B681C69013C5D
:1039B000611C00D197E0286862008218161C8636C8
:1039C000378805970599084F002918D09023995EEC
:1039D0008C4605990BB26146002909DC39683C31F7
:1039E00008E0C04608030020F80E00200003002075
:1039F00039683D3109788B4201DA00233380318800
:103A00000319079300293FD098330593987884468B
:103A10007F2804D001239C44059863468370079B4C
:103A200098339B785BB2022B13DD90320023D05E7B
:103A30003A6809B294460422944463463E229B5E4F
:103A40000593431ADA179B185340059A05F010FBAB
:103A500030802B6802201A19111C983108563968D9
:103A600040310978884207DC211C403149005B184D
:103A700001214942D98003E0B83319680131196046
:103A800098320023D37192E73F68079B06979833DB
:103A90000227DF5705974027BC46069FBC44674670
:103AA0003F78BC46059F674518DD90321288002A92
:103AB00000D17CE7DF79BC460127BC446746FFB2F2
:103AC000DF717FB2BC46069F41373F78BC4508DCBA
:103AD0003280B83003680133036068E7286803194F
:103AE0009833997063E711B0F0BDC04638B5041C37
:103AF0000D1C03F099FA012803D0201C291CFFF7A4
:103B000023FC0C4B1B681A6A0023013A08D30E21D0
:103B100051436118898801395829F5D80133F4E7F0
:103B2000054A012B02DD1378013300E000231370F6
:103B300038BDC04600030020D40E0020F0B58DB083
:103B4000061C0591089209930024334B1B68DB6A1D
:103B50009C425EDA2301F31808215B5E002B56D0ED
:103B6000059AA300D3180321595606919B780F1C80
:103B70005BB20793013F069B01339F4247DC079AE4
:103B8000013A0492079B0499013399423DDC224B90
:103B90001A687B1C91684B43049901335B180899A0
:103BA000CD5C013D2DD3D26A95422ADAAC4228D0B1
:103BB0000599A200525E12995B005B5A9A4220DC82
:103BC000A54202DB2B1C251C1C1C210171180422A0
:103BD0000A310BA805F048FF290171180A310BA81A
:103BE00004F010F80BAA089B09990092129A01930D
:103BF00002910392231C301C05992A1C04F020F822
:103C00002C1C049B02330493BCE70237B3E7013456
:103C10009BE70DB0F0BDC04600030020F0B585B0B5
:103C20000C1C151C01930390FCF750FCFCF75AFC8C
:103C300000F07CFE384E3949336802201B692A1C8B
:103C40004B700423CB705A230B7103F0F9FA231C39
:103C50002A3300221A7080231B066363304BA36350
:103C600033681A692F4B19682F4B1B6802932F4B2F
:103C700018688446013A44D3019F9600BF59A85959
:103C8000C31B676B9F4200DA6363A76B9F4200DD33
:103C9000A3630B78002B07D0029FBB18F027BF004F
:103CA000DB191B78584380110A9FBB591B0C1B1A48
:103CB00011D4487B834202DB0120664630710F201D
:103CC0000856834212DB2768181A3818206060698A
:103CD000013060610AE011200856834206DCA668C4
:103CE000181A3018A060A0690130A061039F50002D
:103CF0003B52201C2A300678B34200DA331C037092
:103D0000B8E7084B2A341B6822781B7A00209A42B5
:103D10004041C0B205B0F0BD0003002010010020FA
:103D2000FFFFFF7FEC0E0020F00E002004030020B8
:103D3000F0B595B013930C1C0C921290FCF7C6FBD7
:103D4000FCF7D0FB964B1B68F8331B78002B06D191
:103D5000944B1B681D7A0A950A27DE5F05E0924B9B
:103D60001B689D780A950427DE5F904D90492B686B
:103D70000C9F5A6818684A709A6804238A70013246
:103D800092000870CB70BA18512302200B7109966B
:103D900003F056FA0023A21D8248D3770232D3776C
:103DA0007F262968621D05688248D677E21DD6778E
:103DB00000684A680F908048013AD2B200680E92BB
:103DC0000A6810907D4E8020013A000652B2AC463F
:103DD0000896079006930493002A00DAA3E00E9F4A
:103DE00050007BB20B90002B00DA9AE08E68551CD5
:103DF00075430135ED18A8000C9F0195139D9E0099
:103E0000C059AE59079F861BB74200DA0796089D36
:103E1000B54200DD0896664637784E68002F09D017
:103E2000351C55430F9FFF187F5D109D7843AD688B
:103E30006843001356431A9F9E19B600F659129F05
:103E4000360C301A019E7500E8536646002854DB94
:103E50000F257557A84212DB2768451B7D19256081
:103E60006569102701356561F757F67B656876B29D
:103E7000B84201DC861B00E0BE1BAE196660E56837
:103E8000A84204DDDEB2D7B211960D97E060664617
:103E9000357BA8421BDB251C08351F26AE579E42EA
:103EA00000DAEB77E51D1F26AE579E4200DDEB776B
:103EB000A51D1F26AE57964200DAEA77651D1F261C
:103EC000AE57964200DDEA77069F0137069785B226
:103ED0001C9F5E000295BD5B029F7D192F1C1C9DDF
:103EE000AF531B9D0B9EAF5B029EF5191B9F0B9E54
:103EF000BD53049F3F18049711E011257557A84240
:103F000006DCA768451B7D19A560A5690135A5617B
:103F10002569A84200DA2061049E361A0496013B06
:103F200061E7013A58E7214B04981B680125D968DD
:103F3000FCF70EF922497C235B42221CCB70E06126
:103F400076231C32281C0B714D7003F079F9069F03
:103F5000A21D27621F21631D51561F229A56164B20
:103F60001B68914201DB1D7101E000221A71079D5F
:103F7000089EE562119F231C0D9D283326631F7048
:103F80005D70E6680A9F0120BE4205DA2369099D3B
:103F9000D80FEA179D425041C0B215B0F0BDC046DF
:103FA00000000020EC0E0020F40E00200003002092
:103FB00014040020F00E002004030020FFFFFF7F08
:103FC0001001002007B5104B2A301B680278987C3E
:103FD0000968424392098A4200DA0A1C997B4A43E3
:103FE000921101921B7B9A4200DA01930749012347
:103FF0004B707C235B42CB7006201F2301AA0B7100
:1040000003F01EF901980EBDEC0E002010010020F7
:10401000F0B59B4C2027A5440F939A4B9A4C6B44C8
:104020001B780D90159300234B72CB7220687F2371
:104030000B728B720A910B920323C3560F99FF1ACE
:104040000223C3567F00FF1A49687F10FFB2089110
:1040500009970422815E0623C25E0823C356407A74
:1040600040B20090089803F0B7F9884B80021D68B1
:104070002968FCF76DF824686A682378002B00D162
:1040800074E0AE252D016D442D68911CEB8849002C
:104090006B802B89AE262B8036010B1FEB186E44EC
:1040A0001D8836687552991E0988D9806178002963
:1040B00003D0099D6FB27F0039E0023B013A39D34A
:1040C0005E88DD88032161567519099E4D431F885E
:1040D00071B21E89BE194E430221AD1961569E88E8
:1040E000714369188911414309141981E5E70325D2
:1040F00065575988DE886D00AC460D1CB14200D270
:10410000351CADB266466E431D89B4461E88311C0F
:10411000AE4200D2291C0225655789B29E88794398
:10412000754361444D19AD1145432D141D81023B6A
:10413000013ADCD20F98406807900B2020560422E9
:10414000A15E0623E25E0A23E3560090079803F07F
:1041500043F94E4B80021D686968FBF7F9FF4A4B33
:104160002A681C682378002B0FD17AE0AE21090160
:104170006944531C09685B00CB18013ADAD31988EB
:10418000023B41430914D980F7E7414D911C6D442E
:104190002D684900EB883E4E6B802B896E442B8046
:1041A0000B1FEB181D8836687552991E0988D98037
:1041B0006178002903D0099D6FB27F0039E0023B8E
:1041C000013A39D35E88DD88032161567519099E4D
:1041D0004D431F8871B21E89BE194E430221AD198D
:1041E00061569E8871436D18AD1145432D141D8194
:1041F000E5E7032565575988DE886D00AC460D1C40
:10420000B14200D2351CADB2614669431E881D899A
:104210008C46311CAE4200D2291C0225655789B25A
:104220009E887943754361444D19AD1145432D1462
:104230001D81023B013ADCD20021242216A805F0A0
:1042400055FC002124221FA805F050FCA22228A81A
:104250000021120105F04AFC237B002B1AD10F9399
:104260002FE00B4D531C6D442D685B00EB18013A99
:10427000E2D31988023B41430914D980F7E7C046CD
:104280003CF5FFFFD80A0000000F002000030020CB
:10429000DC0A00000F9E0E22A15E706800230F93BF
:1042A00088420EDD1223E3561025625F009300233F
:1042B00003F092F810231B1A9B0001261190139310
:1042C0000F96B34B00251C68109520680990099E35
:1042D0006768721E00D2A9E0AE4E53006E44366885
:1042E000F3181493013F00D29EE00F9DA368002DA8
:1042F0003CD0099E5E43F519B44601350B9E6D0016
:10430000705B7E1C01B2C943C9170140901C584321
:104310000E9530180B9D4000455F09B20C958D42FB
:1043200000DA0C916546EB1AF3180B9E5B009B5F5D
:104330008B4200DA0B1C0C9D0B9EE8180E9BF518A7
:104340000223EE5E0B1EB34200DA331C023DC0189E
:104350000026AB5F0D1E9D4200DA1D1C4019139E06
:10436000119D714368434118891106E009980B9D1E
:104370004343FB1801335B00595FAE2636016E44A0
:1043800036687B00F31814981B890689159DCB1A93
:104390009B1BAB4217DD0A9E0B217156B94200DA16
:1043A000F7720A9D0A216956B94200DDAF720A9E72
:1043B00009217156914200DA72720A9D08216956EC
:1043C000914200DD2A72991F082903D816AEF15DCB
:1043D0000131F155A0680999039041431FA80C9140
:1043E000C05D0C9D791C4D1984460B986E0012958A
:1043F000855F654500DA65461FAEF555002B0DDD7E
:10440000502B06DD002A00D1ACE0112A00D0ABE031
:104410000023109D9D4202DA109300E00023129EBB
:104420000D9DB1004B515DE7099250E73D1C013DE8
:1044300066D316ABEB5C062BF9D91FABEB5C132BE9
:10444000F5D8236828A95E1E0C960C9824264643AE
:10445000AE1976006A008E190E925A1E0B92E6D3A0
:10446000A2680D9853430F935B19191C0131890001
:1044700009930B58032159430B9B89B23180002BC0
:104480000ED00F98831A5B190D989B00C05809181D
:104490000D98C31858689B6841185918318003E07B
:1044A0000E98063128ABC152099B0D9899004058CF
:1044B0003388C3180D98411889680C98CB180B994C
:1044C0009BB2338081420DD002314A430D9952197B
:1044D00092000D98895882185B1851689268CB1821
:1044E000D31800E00633338030881421FBF7E2FD57
:1044F0000B9B3080483EB0E716ABFB5C062B02D826
:10450000013FF9D215E01FABFB5C132BF8D87A0002
:1045100028AD236851195A1EF2D3A6684820734368
:104520005043FB180133085A0D9D9B005851131C32
:10453000F1E71949109E0A9DA2682E6060682668FE
:104540000D9D8A707C2301325B4292004870CB70D3
:10455000AA18832305200E700B7102F071FE0F4B19
:104560009D44F0BD131C54E70C98039B0B9DC61A89
:104570008E1976000398735F951C68430B9E08188C
:104580004000815F5B18D90FCB185B1041E7C04634
:1045900000030020DC0A000014040020C40A00000C
:1045A000F0B500220C7D131C8D5C2E1BF717F6193D
:1045B0007E40012E01D0072E01D1033302E0A54237
:1045C00001D00A33DBB20132132AEDD10022632B72
:1045D0000AD8012303700B7D1722012B04D0053B61
:1045E0000022032B00D81722101CF0BD002301224B
:1045F000037043700371427182710A7873B502725D
:10460000CA7C009342720A7D01938272CA5C6D4635
:10461000013AAC5C01330134AC54142BF6D10023C5
:104620006E46F25CC479944200D2C2710133082B09
:10463000F6D14D1D0A1C002456781378F31A032B6B
:1046400001DD083B02E01E1D00DA08339E1C022E2D
:1046500001D900264671DE179B1973400132E41818
:10466000AA42E9D1002C00D144710A1C0C1C0E3264
:10467000123455781378EB1A032B01DD083B02E066
:104680001D1D00DA0833022B01D90023837101328A
:10469000A242EED10A1C55781378EB1A032B01DDE8
:1046A000083B02E01E1D00DA08339D1E012D01D9D2
:1046B0001D1D01D1012545700233022B01D90123B3
:1046C00003700132A242E6D10B785A1E012A01D9A9
:1046D000082B01D10123037173BDF7B5827A031C46
:1046E00000920020042A07D15A79012A04D198792E
:1046F00001384242504100011A78012A0AD11A7940
:10470000012A20D10A780F2A1DD94A78082A1AD1FD
:10471000202217E04A78DD79D61F012E01D9052A1B
:104720000BD11A79012A01D180221043062D0AD813
:104730001A7A032A07D0012204E0062D03D8022AA0
:1047400001D840221043009A013A012A31D85A7AFE
:10475000022A06DDD70F0025042696427D41EDB2E0
:1047600009E00326B61A0196019F0125F60F0024E1
:10477000BD427441E5B2002D04D00D781B2D01D946
:1047800008252843009C012C13D1062A11D94A7808
:10479000022A01D0052A0CD15A78012A01D102231C
:1047A00006E01A7A082A04D0DB79062B01D9042303
:1047B0001843FEBD3C4BF0B51C5C80001B18DA684A
:1047C0006300EDB0D3180593231C6343059E5B0083
:1047D000F31806930023A34211DA0E78DF00BE1906
:1047E000324F5D00F619069F555B7600F65B980028
:1047F0006D42AD1B20306E4685510133EBE70DAFA6
:10480000013102976CAE670004910196079700256D
:10481000A54228DA059E6F00F719029E0020143E7B
:104820000390002803D138883168081A04E03988D9
:104830003268511A04F0C4FF039B079901330393B4
:1048400004367F18A342ECDB049EE9003278174F50
:104850008A18D219069E5200925B029FAB00801A02
:10486000F8500135D4E7049F029E01370497019F59
:1048700014360296BE42CAD10020051CA54211DAA8
:10488000AB00002805D108A8C3187D33FF33186892
:1048900006E008A9CB187D33FF33196804F090FFB8
:1048A0000135EBE76DB0F0BD3C9B0000FFFFFF7FE3
:1048B000F0B587B00C1C0B22061C002103A805F0E4
:1048C00015F903A8311CFFF791FE211C03A8FFF77F
:1048D00004FF114D0123019000245F420123019A3E
:1048E000A34013402341012B01D02B1C07E0201CC7
:1048F000311CFFF75FFF031C8542F6DA271C0134E9
:104900000A2C01D01D1CE9E7044A0020934201DB78
:10491000781CC0B207B0F0BD806967FF6135FFFF4A
:10492000014B18607047C046E00E0020014B18682C
:104930007047C046E00E0020014B18607047C0462B
:10494000DC0E0020014B18687047C046DC0E0020CA
:10495000014B18607047C046D80E0020014B186804
:104960007047C046D80E0020014B18687047C046FB
:10497000080100208D23013B002B01D0C046FAE73F
:10498000044B10221B78DBB21807C00F13401843EA
:104990007047C0462B0000500F4BF7B518261E700D
:1049A0000E4BA0271E70FFF7E5FFFF050B4B01AC78
:1049B00000252C3760701D703E70FFF7DBFF064B43
:1049C00020703D701D7023786278181C50404000A4
:1049D00013400343D8B2FEBD2A0000502D00005002
:1049E00010B50D4B00201B78AA2B12D10B4B1C7855
:1049F0000B4B64B218780B4B40B219780A4B201855
:104A00001A780A4B49B21B7840188018C01A4342E2
:104A10005841C0B210BDC046500002005100020013
:104A20005200020053000200540002005500020030
:104A30008023DB020022188059809A80C046024BF6
:104A4000188880B27047C04606000400154BC0228B
:104A5000920098581449014099509958FF20814379
:104A6000402001439950985810490140802000048B
:104A700001439950985880210002000A0906014319
:104A8000995002221A6001221A60082104221A6039
:104A90001960FC3300215960054B19690A431A61FA
:104AA0007047C04600E100E0FF00FFFFFFFF00FF8E
:104AB00000ED00E013B5094A042413780021DBB2AD
:104AC0001C4301910198F421FF31884205DC1370E9
:104AD000C046147001990131F3E713BD0D00005079
:104AE00082B00022019201AB55221A703922524243
:104AF0009A700122DA70019AA023DB059A6102B054
:104B0000704700000122A023DB0510400206034984
:104B100098690840104398617047C046FFFFFFFE48
:104B200082B00022019201220A40891801303F22FE
:104B300001AB1040C9B21870481C02310240890014
:104B4000D9705A70019AA023DB05DA61196A024A0A
:104B50000A401A6202B07047FFCFFFFF0002064B07
:104B6000000A0138002258609A6005221A60C04687
:104B70001A68D103FCD5704710E000E0F0B5514F42
:104B800085B03B6894339A7819681D78DE780F23D6
:104B90001407994312092D0701922D0F0B1C802237
:104BA0002B4352001343484A0395484D1340484A4B
:104BB0002B4048491340240F0B4001992204134312
:104BC0000A0545493607360F0B4000961343320657
:104BD000424E029433401343414AA024E40513405B
:104BE000E360FFF767FF3B68E26895331B78154089
:104BF000DB069B0FDB021D43E560E26880239B0020
:104C00001343E360E26880239B011343E360029C4B
:104C1000039DFFF7E5FE002813D0324F8820397836
:104C20001E34C9B2FBF794FA39784443C9B28820DC
:104C3000FBF78EFA0F3545431E3C00230F3D9C4287
:104C400003DB231E0F2B00DD0F230F22954200DD17
:104C5000151CA024E4051F491A40E36812040B4008
:104C60001343E360EB43E268DB171D400F239A43D5
:104C70001D401543E560E368F0229343802213430F
:104C8000E360E368144A18481340E360E368334084
:104C9000E360FFF763FFE26880235B051343E36093
:104CA0000099E2680B0616401E43E6600F48FFF7C6
:104CB00055FF019B08491A05E3680B401343E36065
:104CC00005B0F0BDDC0E0020FFF9FFFFFFE7FFFF9E
:104CD000FFDFFFFFFFFFF0FFFFFF0FFFFFFFFFF012
:104CE000FFFFFFEF54000200FF0F0000FF6F000006
:104CF000064A074B12680120E83212681978904082
:104D0000021C0A43D2B21A707047C0460801002044
:104D1000290000500549064B09681A78E8310968EE
:104D20000120884082431A707047C0460801002065
:104D300029000050044B1878044B1B68E8331B68AB
:104D40001841012318407047290000500801002035
:104D5000044B82B0019001AA188092789A7002B038
:104D60007047C0462400005007B500F09BFF064B7B
:104D7000019001AA188092789A70044B00221A7050
:104D8000034B0122DA7707BD24000050C00E00203B
:104D900008000050034B00221A70034B0122DA77FF
:104DA0007047C046C00E00200800005072B6084B85
:104DB0001B5C002B03D1C04662B630BFF6E762B67B
:104DC000A023DB059968034A0A409A607047C046F1
:104DD000C00E0020FFFFF9FF72B6074B1B5C002BD3
:104DE00002D1C04662B6F7E762B6A023DB05996838
:104DF000024A0A409A607047C00E0020FFFFF9FF88
:104E0000A023DB055A680121120E58689143034A1A
:104E1000090602400A435A607047C046FFFFFFFE82
:104E200008B5074B1B681A1C9C3212789D331B78FF
:104E30005200013250439940FBF78AF908BDC04641
:104E4000DC0E002008B5044B1B689F33197849001D
:104E50000131FFF7E5FF08BDDC0E002008B5A023F7
:104E60000120DB055870FFF7A1FFFFF7C9FF08BD60
:104E7000F7B5A026041CF605042807D1554B1B687E
:104E80001A1CA432A83317681B6824E0524B1B6815
:104E90001A1C8C331B68883217687361FBF728FB78
:104EA000EF300378002B17D004F0BAFD04F0CCFCEF
:104EB00001797F2211408904019171690B1C4749D6
:104EC0000B400199194371614179444B0A40716962
:104ED00092040B4013437361A023DB051F611E691D
:104EE0001F231E40FFF77CFD00280AD03C4B882082
:104EF00019780436C9B2FBF72BF946430023043E68
:104F000003D4331E1F2B00DD1F23A022D205108ADD
:104F10001F210B40884303431382022C16D007DC69
:104F2000002C13D0012C2DD12B4B1D689E3529E070
:104F3000042C07D023DB052C24D1264B00241D682C
:104F4000AF351FE0234B1D68AC351BE0FBF7D0FAF3
:104F5000031CD4331B78002B03D01E4B1D685D351A
:104F600010E0EF300378002B05D004F059FD04F079
:104F70006BFC851D06E0184B1D689B3502E0164B47
:104F80001D68A135A023DB05596928783F22104010
:104F900091430143596168781F215D6908401149B7
:104FA000C0022940014359610F49640009680C1986
:104FB000211C7731087859681040914301435960AA
:104FC0007834217858680A401102084A02400A439E
:104FD0005A60F7BDE00E0020DC0E0020FFFF03FE4C
:104FE00054000200FF07FFFF08010020FFC0FFFF81
:104FF000234BF7B51A68234B1B689E331B785B065F
:105000009B0E0193931DD97F00238D005519581EC7
:105010005B18002B27D053181B1826331B788024CD
:10502000D3185E78A023DB055F68E4033C435C6033
:10503000019CB606240400945F68B60EBC46124F6D
:1050400064462740009C27435F60C04624367600B4
:105050008400F65A2C19983426605E680B4C344054
:105060005C60031CD3E7931D0949DB7F98324B70CA
:105070000423CB700F20B0230B7102F0E1F8F7BDD1
:1050800008010020DC0E0020FFFFC0FFFFFFBFFF74
:1050900010010020F7B5FFF7ABFF124B00241D688D
:1050A000AB1DDE7F731C9B005B420093B300EB18CB
:1050B0000193009B043C9C4208D0019B01211F19D5
:1050C00098373868FFF7ACFE3860F2E706492A1CCB
:1050D0000423CB709832B0230F204E700B7102F076
:1050E000AFF8F7BD0801002010010020044B00229A
:1050F0005A70A023DB055A7001221A707047C0460F
:10510000C00E0020A023DB059968064A0A408021D2
:1051100089020A439A60044A0021917001229A7020
:105120007047C046FFFFF9FFC00E0020024B1B680E
:10513000903318687047C04608010020024B1B6876
:10514000903318607047C04608010020A023DB059B
:105150009868C0B2704730B5A023DB059B68DBB20E
:1051600083420ED001DA013300E0013BA022D205D8
:105170009568FF211C1C8D430C40291C2143916024
:10518000EEE730BDA023DB059968802252020A4376
:105190009A609968094A0A409A609A68120112094D
:1051A0009A60D968064A0A40DA60D968054A0A4016
:1051B000DA60D968044A0A40DA607047FFFFFFF0FE
:1051C000FFFEFFFFFFDFFFFFFFFFFFEF1B4B10B5F1
:1051D0001A680121131C92331878A023DB059C6800
:1051E0000840174900042140014399609332107828
:1051F0009C68144900070009214001439960117817
:105200009A6809091201090712090A439A60D968C4
:10521000802252000A43DA60D968802292010A4350
:10522000DA60D968802252050A43FA20DA608000E9
:1052300000F05CFDFFF792FC10BDC046DC0E0020C4
:10524000FFFFFEFFFFFFFFF008B50020FFF7AEFDF8
:1052500008BD0000034B1B689C33187840000130E8
:105260007047C046DC0E0020024B1B689D33187847
:105270007047C046DC0E0020004870470010005008
:105280000048704700200050004870470040005020
:10529000074B01201B685B799A1C0340D318054A11
:1052A0001268663210785843034B8000C01870476C
:1052B000E00E00200801002004400050F7B51B4B11
:1052C000051C1C68A3795F1E15D36279013A10D3BF
:1052D0006079561C811C0191012108400199081830
:1052E000584331181248890009180868E8400860D6
:1052F000ECE73B1CE7E7FFF7CBFFA37A0022013383
:105300009C466346013B9C460FD3617A960001910F
:10531000861900230199994205D09F00F159013364
:10532000E940F151F6E75218EBE7F7BDE00E002037
:1053300000400050074B01201B685B799A1C03401A
:10534000D318054A1268723210785843034B800014
:10535000C0187047E00E00200801002004400050F3
:10536000094B01211A685379D0799A1C0B40D31844
:10537000064A013012686A3212785343C018044B4F
:105380008000C0187047C046E00E002008010020D1
:1053900000400050F7B5434B1D682A7853B2042BE8
:1053A0001DD1414B19680B1CAE331F7802235E1EC2
:1053B00077D34A79013A10D34C79551CA01C01903F
:1053C00001200440019804195C432819374C8000DF
:1053D00000190468FC400460ECE7331CE7E7002A8E
:1053E00045D0022B21D1FBF783F8D43003782E4C23
:1053F000002B02D023685F3302E02D4B1B689D33E6
:105400001878FFF75BFF2568EC79002C2FD0FFF7A9
:10541000A7FF061C013C2AD3697A201CFAF7EEFE8E
:1054200089008A59A300F250F4E7032B03D1204BE3
:105430001B68A33318E0012B11D1FFF77BFF1A4B38
:10544000061C1B685C79013C11D32B193A331B787D
:105450009B009859FFF7F6FCA300F050F3E7052BEB
:1054600005D1114B1B68B1331878FFF727FF104B9C
:105470001B689A331B78002B13D00B4B1A68537997
:10548000013B0ED3517901258C1C29406118947978
:10549000581C6143401805498000401800210160F4
:1054A000EEE7F7BD08010020E00E002000400050AC
:1054B000DC0E002008B5A0230120DB055870FFF7A3
:1054C00075FCFFF79DFCFFF765FF08BD70B5041C78
:1054D000104E114D11D10120FFF7CAFC3368012293
:1054E0001A70A023DB056C705C701A70FFF7E2FF86
:1054F000FFF786FCFFF7CEFD0224201CFFF7B8FC67
:10550000336800221C70A023DB056A705A700122E8
:105510001A7070BD08010020C00E002008B5FFF70A
:10552000D5FFFFF7C7FF08BD10B5A023DB051C6A38
:105530000005064A000D010422400A431A621A6A55
:10554000120B12031043186210BDC046FFFF00F09B
:1055500073B5174BA0221B68D20590339168196868
:1055600091601C78FFF73CFA124D002812D0124BC4
:10557000124A1B7812782E6852B25BB20092201C3D
:105580001021D12201F028FF2B689436306094332B
:105590001B68E418002C01DA002402E0FF2C00DD77
:1055A000FF242B68E0B290331C60FFF7D4FD73BD7D
:1055B000DC0E00200801002053000200520002000F
:1055C00073B5A023DB059C68FFF70AFAE4B2124D1D
:1055D000002812D0114B124A1B7812782E6852B252
:1055E0005BB20092201C1021D12201F0F5FE2B6845
:1055F0009436306094331B68E418002C01DA0024E0
:1056000002E0FF2C00DDFF242B68E0B290331C6029
:10561000FFF7A1FD73BDC046080100205300020042
:105620005200020008B5002801D0012801D100F085
:105630004BFFFFF78DFFFFF7A1FAFFF751FA08BD07
:1056400070B51F4B13211B68A0B0DA7A0023133A00
:10565000D2B291425B410221C91AA023DB055869ED
:105660003F2210405C688022D20322435A60421ECF
:10567000A023D2B2DB05FF2A11D05E683F25114C72
:1056800015402D0434402C435C60C0460C1C24346F
:1056900064001C5B6D465300EC52013AE8E7596820
:1056A000094A0A4009495A6002234870CB70032016
:1056B000B3236A460B7101F0C3FD20B070BDC04634
:1056C000E00E0020FFFFC0FFFFFFBFFF1001002022
:1056D000F7B5041C02F0BAF9124B1A68002350689F
:1056E000411C0191019D16689D420CDB97680136B3
:1056F0007E4399008C469E1900216546B600615193
:1057000001333151EEE701239E420ADB9568002107
:105710005D43AF002D180135AD00395101332951DA
:10572000F2E7F7BD00030020044B054900221A6090
:1057300059609A6005221A607047C04610E000E088
:10574000FFFFFF0010B5A023DB059C6899680C4B98
:10575000C9B21B68E40394331B68E40F591AFF3184
:10576000E62359430134074BA040C918041C0648DE
:10577000FAF7EEFCC1B2201CFAF7EAFC10BDC046F5
:10578000080100205C5D000040420F00014B002238
:105790001A60704710E000E013B50B4C0B48A3688B
:1057A000C01A0193FFF7CEFF094901234B70042370
:1057B0000190CB7000206F2301AA0B7101F040FD16
:1057C00000230198236016BD10E000E0FFFFFF00FA
:1057D0001001002010B5041CFFF7A6FF201CFFF7E6
:1057E00075FEA023DB0501205870FFF7F5FAFFF7DF
:1057F00007FBFFF7CFFDFFF7CFFF10BDF7B523483D
:1058000000F074FAFFF7AAF9214F0025214E224C2F
:10581000B7421FD28036F31B2026832B00DC9E105C
:105820000123667000203A1C211CB610E370207121
:1058300001F006FD3B1C321C013A08D3002D04D1B7
:1058400016491868884200D01D1C0433F4E7B600DE
:10585000BF19DBE70E4904226B1A01270193E2709E
:10586000A723211C01AA002067702371843601F050
:10587000E7FC0423751BE3700020A823211C01AA68
:1058800001956770237101F0DBFCF7BD801A0600FB
:10589000080F00208037002010010020CDCDCDCD95
:1058A000024B1B680633D87F7047C04608010020B2
:1058B00070B5051CFFF73EFD0A4B1C68A31DDB7F7E
:1058C0009A00AD180022511ED218002A09D0E21801
:1058D000521826321278920016588A00AE500A1CCE
:1058E000F1E770BD0801002030B50B4B1B689A1D15
:1058F000D27F94001C195300C01800230133D11A21
:10590000013107D09D00651B983559002D6849422B
:105910004552F3E730BDC04608010020F8B50C1C25
:10592000051CFFF71BF8144908688379013B11D364
:105930000E687279013AF9D30E6870790F4E5843A8
:1059400036688018F6182818A03607783679BE19F8
:105950000670EFE70B68DB79013B08D3074AE15C8F
:105960001268D218C83212788A18E254F4E7281C58
:10597000211C00F0D3FFF8BDE00E0020DC0E00205B
:10598000134BF7B51C686946E26800AF131C0E3371
:10599000DB08DB00C91A23698D460E33DB08DB0008
:1059A000C91A0C4B6D461E688D467960281C311C47
:1059B00004F05AF8F0239B00F1182269786804F08B
:1059C00053F8281C7968FFF7A9FFBD46F7BDC0460C
:1059D00000030020D80E0020B0B5AC4CF022A54446
:1059E00000AF381C0021920004F080F87D1C1023C9
:1059F0000F220E2011211224EB77BD1C3A70797012
:105A0000BB70F9703B717971B971F9713972797242
:105A1000B972F97239737973B973FB733B74797422
:105A2000BB74F9743B757C75B975FB753C767976FA
:105A3000B976F97639777977B877FB77EB77FD1C0C
:105A4000EB773D1DEB777D1DEB77BD1DEB77FD1DE6
:105A5000EB770135EB77203529706B70A970EB700F
:105A60000435EC733C1C3C3420706370A270E2700F
:105A700022716271A17129706B70AB70EB702B7128
:105A80006B71AB71EB712B726B72AB72EB722B7330
:105A90006B73AB73E37122726372A372E3720C34A3
:105AA00023706370A370E27022716371A371E3715C
:105AB00023726372A372E37223736373A273E3733B
:105AC000E41822706370A070E27023716271A37198
:105AD000E37122726272A372E27223736273A27321
