:100000000110000000000000003D0000FF000000A3
:10001000022004122C512222FFFFFF02346775AA2E
:100020003B75BA0843BA4043B92053B9BFE4F5B3AE
:1000300075B24E75B12075BBFF75A960F5AB75AC97
:100040000375ADC075AEC022FFFFFF0229FAAB07F2
:10005000AA06D3EB9DEA9C4007EB9DFFEA9CFE229B
:10006000C3ED9BFFEC9AFE22FFFFFF022AD3900113
:10007000F2120B6E00000000E49001F6F09001FB1C
:10008000F0A3F0A3120B6E00000000E4900201F058
:10009000A3F09001F67404F09001F6E0FBD3940015
:1000A000402AEB25E025E02484F582E43400F58342
:1000B000120B25EB25E025E02488F582E43400F5D9
:1000C00083120B569001F6E014F080CC9001A91237
:1000D0000B25900088120B56E49001F6F09001F683
:1000E000E0FFC3940550289001F2120B3DEF25E08C
:1000F00025E02488F582E43400F583120B251209EB
:10010000949001F2120B569001F6E004F080CE902C
:1001100001F2120B25EC4D4E4F60089000A0120B1F
:10012000568009E47826F208F27F022290018912B3
:100130000B259000A0120B3DC3120AE2401F900154
:1001400089120B25AB07AA06A905A8049000A012E6
:100150000B251209A19001F7120B5680037F022292
:10016000E4FFFEFDFC9001F7120B3DC3120ACC50D8
:10017000037F02229001F7120B25E4900207F01290
:1001800025707803120AF390009C120B5620004849
:100190007804E2FE08E2FFFBAA06E4F9F890009C6E
:1001A000120B251209A1C006C0079000C6E0FEA3ED
:1001B000E0FFFBAA06EA3395E0F9F8D007D0061273
:1001C00009A1EF240DFFEE3475FEE43DFDE43CFC97
:1001D0009001F2120B56804E90009C120B25EF24DA
:1001E00030FFEE3475FEE43DFDE43CFCC006C00784
:1001F0007804E2FE08E2FFFBAA06E4F9F8D007D093
:10020000061209A1C006C0079000C6E0FEA3E0FFE9
:10021000FBAA06EA3395E0F9F8D007D0061209A147
:100220009001F2120B569001F2120B25E490020796
:10023000F01226657803120AF39001FD120B56782E
:1002400006E2FF08E29000A8CFF0A3EFF0E47FFF02
:100250007EFFFDFC9001FD120B3DD3120AE2400C23
:100260009000A4120B6E0000FFFF800C9001FD12A5
:100270000B259000A4120B56E4900121F0A3F090FE
:1002800001F67413F09001F6E0FFC394014045E0DD
:10029000FE25E024F7F582E43400F583E0FCA3E0DA
:1002A000FDEE25E024F9F582E43400F583ECF0A3BB
:1002B000EDF0EF25E024F9F582E43400F583E0FE6B
:1002C000A3E0FF900121EE8FF012097E9001F6E08D
:1002D00014F080B17864120B31AB07AA069000A429
:1002E000120B25C3EF9BFFEE9AFE9000F9F0FAA3E4
:1002F000EFF0FB9000A4120B257864120B629001C2
:1003000021EA8BF012097E900121E0FFA3E0900129
:10031000FBCFF0A3EFF0900149E07002A3E060038F
:100320000204F29001FBE0FEA3E0FFC3EE648094C0
:1003300080400BD3EF94C8EE64809480401CC3EFE0
:100340009438EE6480947F50030204CED3EF94007F
:10035000EE6480948040030204CE900127E0B40153
:10036000119000A4120B25900123120B56E490016A
:1003700027F09001FBE0FEA3E0FFD3941EEE648023
:100380009480500EC3EF94E2EE6480947F400302A9
:1003900004369000A4120B25900123120B3DD312BA
:1003A0000AE24049900123120B2574FFFBFAF9F889
:1003B000120994900123120B569001FBE0FEA3E07A
:1003C000FFD3943CEE64809480500BC3EF94C4EE52
:1003D0006480947F5070900123120B2574FFFBFA08
:1003E000F9F8120994900123120B5680599000A439
:1003F000120B25900123120B3DC3120AE2504790C5
:100400000123120B25E47B01FAF9F81209949001FB
:1004100023120B569001FBE0FEA3E0FFD3943CEEC9
:1004200064809480500BC3EF94C4EE6480947F503A
:1004300015900123120B25E47B01FAF9F8120994B7
:10044000900123120B569000A4120B25EF24F4FF09
:10045000EE3401FEE43DFDE43CFC900123120B3D33
:10046000C3120AE250229000A4120B25EF240CFFC5
:10047000EE34FEFEED34FFFDEC34FFFC9001231260
:100480000B3DD3120AE250169001277401F0900040
:10049000A4120B25900201EEF0A3EFF08054781F18
:1004A000E224F4FF18E23401FEE4FCFD9000A41203
:1004B0000B3DD3120AE250169001277401F0900010
:1004C000A4120B25900201EEF0A3EFF0802490011E
:1004D00023120B25900201EEF0A3EFF0801490019F
:1004E000277401F09000A4120B25900201EEF0A3F6
:1004F000EFF0900201E0FFA3E07806CFF208EFF200
:10050000800D9000A4120B257806EEF208EFF27F22
:1005100006229001F6120B6E00000000E49001FA32
:10052000F0A3F0A3F09000B0120B259001A5120BE0
:100530003D1209949000B0120B569000B8E004F000
:10054000E0640560030208FB9000B0120B259000E8
:10055000B4120B569000B0120B6E00000000E49035
:1005600000B8F09000B4120B259001F2120B5690D7
:1005700001F2120B25E47B1DFAF9F81209AF900184
:10058000F2120B569001F2120B25E47B0AFAF9F8ED
:10059000120A3A9001F2120B569001F2120B2590BA
:1005A00000B9120B56900185120B3D9000B9120B49
:1005B000251209A19001F2120B56E47FB87E0BFDC3
:1005C000FC9001F2120B3DC3120AE24016E47F4791
:1005D0007EF4FDFC9001F2120B3DD3120AE25003AF
:1005E0000206627804E2FE08E2FF9000C7E02FFFF7
:1005F0009000C6E03ECF24D0CF348AF0A3EFF09035
:1006000001F2120B25900185120B3D120994EF2483
:10061000D0FFEE348AFEED34FFFDEC34FFFC900198
:1006200085120B5678047475F2087430F29000F459
:10063000120B6E000075307860120B9F0000753051
:100640009000F87401F090012E120B6E0000000073
:10065000E4900134F0A3F09001F2120B6E000075EB
:10066000309002017401F07F307E757D007C0012B5
:100670002F7A9001F2120B25E4900201F0122F7AEA
:100680007803120AF39000C4EEF0A3EFF0E49000B8
:10069000F2F0A3F09001FC7413F09001FCE0FFC3B2
:1006A00094014045E0FE25E024C8F582E43400F5DD
:1006B00083E0FCA3E0FDEE25E024CAF582E43400EB
:1006C000F583ECF0A3EDF0EF25E024CAF582E434E5
:1006D00000F583E0FEA3E0FF9000F2EE8FF0120938
:1006E0007E9001FCE014F080B17860120B31C39071
:1006F00000C5E09FFF9000C4E09EFE9000CAF0FAA3
:10070000A3EFF0FB9000C4E0FEA3E0FFE4FCFD7863
:1007100060120B629000F2EA8BF012097E9000F2F8
:10072000E0FEA3E0FFEE3395E0FDFC9001F6120B36
:1007300056900149E07002A3E060030208E79000D0
:10074000F8E0B401169000C4E0FEA3E0FFE4FCFD75
:100750009000F4120B56E49000F8F0E47F05FEFDE3
:10076000FC9001F6120B3DC3120ACC501674FF7FA9
:10077000FBFEFDFC9001F6120B3DD3120ACC4003A8
:100780000208D09000C4E0FEA3E0FFE4FCFD90006E
:10079000F4120B3DD3120AE250030208279000F432
:1007A000120B2574FFFBFAF9F81209949000F41269
:1007B0000B56E47F14FEFDFC9001F6120B3DD312A4
:1007C0000ACC501374FF7FECFEFDFC9001F6120B77
:1007D0003DC3120ACC50189000F4120B2574FFFB95
:1007E000FAF9F81209949000F4120B560208D0E4BA
:1007F0007F28FEFDFC9001F6120B3DD3120ACC506F
:100800001674FF7FD8FEFDFC9001F6120B3DC3125B
:100810000ACC40030208D09000F4120B25C3EF94D9
:1008200002FFEE9400FEED9400FDEC9400FC9000BD
:10083000F4120B560208D09000C4E0FEA3E0FFE4DF
:10084000FCFD9000F4120B3DC3120AE240030208C3
:10085000D09000F4120B25E47B01FAF9F812099408
:100860009000F4120B56E47F14FEFDFC9001F6128A
:100870000B3DD3120ACC501374FF7FECFEFDFC90AD
:1008800001F6120B3DC3120ACC50179000F4120B64
:1008900025E47B01FAF9F81209949000F4120B5642
:1008A000803EE47F28FEFDFC9001F6120B3DD31242
:1008B0000ACC501374FF7FD8FEFDFC9001F6120B9A
:1008C0003DC3120ACC50199000F4120B25EF2402FC
:1008D000FFE43EFEE43DFDE43CFC9000F4120B56C8
:1008E0009000F4120B259001FAEEF0A3EFF07804DB
:1008F000EEF208EFF280149000C4E0FFA3E0780469
:10090000CFF208EFF29000F87401F07F0622BB01ED
:100910000689828A83E0225002E722BBFE02E3229C
:1009200089828A83E49322EF8DF0A4A8F0CF8CF023
:10093000A428CE8DF0A42EFE22BC000BBE0029EF11
:100940008DF084FFADF022E4CCF875F008EF2FFFB6
:10095000EE33FEEC33FCEE9DEC984005FCEE9DFE84
:100960000FD5F0E9E4CEFD22EDF8F5F0EE8420D2CB
:100970001CFEADF075F008EF2FFFED33FD4007983A
:100980005006D5F0F222C398FD0FD5F0EA22C5F04B
:10099000F8A3E028F0C5F0F8E5821582700215830F
:1009A000E038F022EF2BFFEE3AFEED39FDEC38FC9B
:1009B00022C3EF9BFFEE9AFEED99FDEC98FC22E836
:1009C0008FF0A4CC8BF0A42CFCE98EF0A42CFC8A34
:1009D000F0EDA42CFCEA8EF0A4CDA8F08BF0A42DB1
:1009E000CC3825F0FDE98FF0A42CCD35F0FCEB8E52
:1009F000F0A4FEA9F0EB8FF0A4CFC5F02ECD39FE08
:100A0000E43CFCEAA42DCE35F0FDE43CFC2275F07C
:100A100008758200EF2FFFEE33FECD33CDCC33CC03
:100A2000C58233C5829BED9AEC99E58298400CF51E
:100A300082EE9BFEED9AFDEC99FC0FD5F0D6E4CE4C
:100A4000FBE4CDFAE4CCF9A88222B800C1B9005980
:100A5000BA002DEC8BF084CFCECDFCE5F0CBF9784D
:100A600018EF2FFFEE33FEED33FDEC33FCEB33FBE1
:100A700010D703994004EB99FB0FD8E5E4F9FA226B
:100A80007818EF2FFFEE33FEED33FDEC33FCC93366
:100A9000C910D7059BE99A4007EC9BFCE99AF90F2E
:100AA000D8E0E4C9FAE4CCFB2275F010EF2FFFEE9A
:100AB00033FEED33FDCC33CCC833C810D7079BECE5
:100AC0009AE899400AED9BFDEC9AFCE899F80FD55D
:100AD000F0DAE4CDFBE4CCFAE4C8F922EB9FF5F0C0
:100AE000EA9E42F0E99D42F0EC6480C8648098453B
:100AF000F022EB9FF5F0EA9E42F0E99D42F0E89C7F
:100B000045F022E8600FECC313FCED13FDEE13FE7D
:100B1000EF13FFD8F122E8600FEFC333FFEE33FE8F
:100B2000ED33FDEC33FCD8F122E6FC08E6FD08E6E7
:100B3000FE08E6FF22E0FCA3E0FDA3E0FEA3E0FF49
:100B400022E2FC08E2FD08E2FE08E2FF22E0F8A350
:100B5000E0F9A3E0FAA3E0FB22E2FB08E2F908E2F5
:100B6000FA08E2CBF822ECF0A3EDF0A3EEF0A3EF4D
:100B7000F022ECF208EDF208EEF208EFF222A88281
:100B80008583F0D083D082120B85120B85120B85E2
:100B9000120B85E473E493A3C583C5F0C583C8C570
:100BA00082C8F0A3C583C5F0C583C8C582C822D05A
:100BB00083D082E493F208740193F208740293F2F2
:100BC00008740393F2740473A42582F582E5F0356A
:100BD00083F58322FAE6FB0808E6F925F0F618E625
:100BE000CA3AF622E493FB740193FA740293F92251
:100BF000D083D082F8E4937012740193700DA3A394
:100C000093F8740193F5828883E4737402936860A7
:100C1000EFA3A3A380DF8A838982E473123AB4E44A
:100C2000FD7F011236B59001F7E5BAF053BA0F43D4
:100C3000BA10E49001F1F09001F1E0FFC39402508A
:100C40001DEF25E025E0248DF582E43401F58312C3
:100C50000B6E000000009001F1E004F080D99001DB
:100C600095120B6E000000009001F17405F075AB59
:100C7000FF123A49E49001F2F09001F2E0FFC394D0
:100C8000025058EF25E025E0248DF582E43401F58B
:100C900083C083C082120B3DC000C001C002C003EC
:100CA0009001F2E02475F582E43401F583E075F0FB
:100CB00003A4248FF582E4343BF583120BD4120C89
:100CC00006D003D002D001D000120994D082D08384
:100CD000120B569001F2E004F0809E900195120BE9
:100CE0003DC000C001C002C003900177E075F00371
:100CF000A4248FF582E4343BF583120BD4120C0646
:100D0000D003D002D001D000120994900195120BAB
:100D100056E4F5AB123A49E49001F2F09001F2E0AA
:100D2000FFC394025060EF25E025E0248DF582E4B6
:100D30003401F583C083C082120B25C004C005C0F6
:100D400006C0079001F2E02475F582E43401F583D2
:100D5000E075F003A4248FF582E4343BF583120B95
:100D6000D4120C06A804A905AA06AB07D007D00622
:100D7000D005D0041209A1D082D083120B56900165
:100D8000F2E004F08096900195120B25C004C00596
:100D9000C006C007900177E075F003A4248FF582A8
:100DA000E4343BF583120BD4120C06A804A905AA5F
:100DB00006AB07D007D006D005D0041209A19001D8
:100DC00095120B569001F1E014F0E06003020C5E06
:100DD000E49001F2F09001F2E0FBC39402504DA3C5
:100DE000120B6E00003A989001F3120B257807124F
:100DF0000B069001F3120B569001F3120B25EB2515
:100E0000E025E0248DF582E43401F583120B3D12D8
:100E10000A3A9001F3120B569001F3120B25900140
:100E2000F2E0242AF8A607E004F080A99001F3126A
:100E30000B6E00003A989001F3120B257807120B05
:100E4000069001F3120B569001F3120B25900195B9
:100E5000120B3D120A3A9001F3120B569001F31255
:100E60000B25782CA6079001F7E0F5BA900177E002
:100E700090370093F5AB229001F1EEF0A3EFF0E490
:100E80009001F4F0A3F0A3F090015CE0FFA3E090E8
:100E900001F5CFF0A3EFF0E49001F3F09001F3E05F
:100EA000FBC394024003020FA3900228E070169047
:100EB0000141E0B4030FD390014CE0940090014B4A
:100EC000E0940040209001F3E0FF25E02480F8E466
:100ED000F208F2EF25E025E02468F8120B9F0000ED
:100EE0000000020F9AEB25E02481F9E3700219E378
:100EF000701C9001F3E0FF25E02400F8E2FC08E21A
:100F0000FDEF25E02478F8ECF208EDF2805E900128
:100F1000F3E0FD25E02478F8E2FE08E2FFED25E0AD
:100F20002400F8E2FC08E2FD12003EC39001F6E066
:100F30009F9001F5E09E50349001F3E0FF25E024FE
:100F400000F8E2FC08E2FDEF25E02478F8ECF20876
:100F5000EDF2E0FF25E02480F8E4F208F2EF25E06E
:100F600025E02468F8120B9F000000009001F3E0D8
:100F7000FF25E02400F8E2FC08E2FDEF25E025E093
:100F80002468F8C000120B49AE04AF05E4FCFD1262
:100F90000994D000120B629001F3E025E02480F860
:100FA00008E22401F218E23400F29001F3E004F0C8
:100FB000020E8CE49001F3F09001F3E0FFC3940281
:100FC0005024EF25E02481F99001F1E0FEA3E0FF39
:100FD000C3E39F19E39E40069001F4E004F0900102
:100FE000F3E004F080D29001F4E0640260030210A8
:100FF000AD74FF90015EF0A3F0E4A3F0A3F09001C4
:10100000F3F09001F3E0FFC3940240030210ADEF50
:1010100025E02480F8E2FE08E2FF4E70030210ADE6
:10102000E4FCFDC004C005C006C007E025E025E0E3
:101030002468F8120B31D003D002D001D000120A7C
:101040003A9001F7EEF0A3EFF0D390015FE09F90AC
:10105000015EE09E400F9001F7E0FFA3E090015E8B
:10106000CFF0A3EFF0900160E0FEA3E0FF9001F766
:10107000E0FCA3E0FDD39FEC9E4008900160ECF003
:10108000A3EDF09001F7E0F8A3E0FF9001F3E0FD9D
:1010900025E02418C8F208EFF2ED25E02480F8E4FA
:1010A000F208F2ED25E025E02468F8120B9F00001D
:1010B0000000C2189001F3E004F0020FF222E49065
:1010C00001F5F0EF70030211F9123AB47D01E4FF6B
:1010D0001236B57874120B9F00000000123A49785E
:1010E00074120B49C000C001C002C003900178E037
:1010F00075F003A4248FF582E4343BF583120BD4FE
:10110000120C06D003D002D001D0001209947874DA
:10111000120B629001F5E004F0E0FFC3940540BCBF
:10112000E4FCFDFEC004C005C006C0077874120BC5
:1011300031D003D002D001D000120A3A9001F61249
:101140000B569001F6120B3DC000782DE6FFE4FC33
:10115000FDFED0001209AF9001F6120B569001F679
:10116000120B257807120AF39001F6120B56900124
:10117000F6120B259001A9120B56E47F05FEFDFC2B
:101180009001A9120B3D1209AF9000A0120B56E47A
:101190007F307E75FDFC9000A0120B3DD3120AE259
:1011A00040439000A0120B25EF24D0FFEE348AFEBE
:1011B000ED34FFFDEC34FFFC900189120B567806EC
:1011C0007475F2087430F27814120B9F00007530B9
:1011D000900123120B6E000075307860120B9F0097
:1011E0000075308065900189120B6E000000009040
:1011F00001A9120B257806EEF208EFF29001A91270
:101200000B257814120B6280419000A0120B25EF81
:1012100024D0FFEE348AFEED34FFFDEC34FFFC9069
:101220000189120B5678067475F2087430F2900139
:1012300023120B6E000075307864120B9F0000754E
:10124000307814120B9F00007530781E7475F20808
:101250007430F27874120B9F00000000E47886F27C
:1012600008F27826F208F27834120B9F0000000092
:10127000E4FB9001A9120B25EB25E025E02488F57D
:1012800082E43400F583120B560BEBB405E4E4FB67
:10129000EB25E024F9F582E43400F583E4F0A3F0D3
:1012A0000BEBB414EB90009C120B6E0000753090A9
:1012B00000A4120B6E000075309000A87475F0A3A6
:1012C0007430F09002077401F07F307E757D007CF1
:1012D000001226659002077401F07F307E757D0054
:1012E0007C0012257022E49001F2F0123AB4E4FD81
:1012F0007F011236B5E49001F1F09001F1E0FFC3F7
:1013000094025017EF25E025E02468F8120B9F00A7
:101310000000009001F1E004F080DF123A49E4900F
:1013200001F1F09001F1E0FFC394025056EF25E087
:1013300025E02468F8C000120B31C004C005C006C7
:10134000C0079001F1E02475F582E43401F583E0F3
:1013500075F003A4248FF582E4343BF583120BD49B
:10136000120C06A804A905AA06AB07D007D006D020
:1013700005D004120994D000120B629001F1E00430
:10138000F080A09001F2E004F0E0C39405408CE40A
:101390009001F1F09001F2E0FFE4FCFDFEC004C01A
:1013A00005C006C0079001F1E025E025E02468F8BB
:1013B000120B31D003D002D001D000120A3A9001B2
:1013C000F3120B569001F3120B3DC0009001F1E0B7
:1013D000242AF8E6FFE4FCFDFED0001209AF9001DC
:1013E000F3120B569001F3120B257807120AF390B3
:1013F00001F1E0FB25E025E0249DF582E43401F5D0
:1014000083120B56EB25E025E0249DF582E43401A0
:10141000F583120B25E47B307A75F9F8C3120AE2E2
:1014200050489001F1E0FB25E025E0249DF582E4A1
:101430003401F583120B25EF24D0FFEE348AFEED44
:1014400034FFFDEC34FFFCEB25E025E0247DF58244
:10145000E43401F583120B569001F1E025E02400FD
:10146000F87475F2087430F280389001F1E0FB25D1
:10147000E025E0247DF582E43401F583120B6E0053
:10148000000000EB25E025E0249DF582E43401F521
:1014900083120B259001F1E025E02400F8EEF2081C
:1014A000EFF29001F1E0FB25E025E02468F8120B53
:1014B0009F00000000EB25E02480F8E4F208F290A1
:1014C00001F1E0FF25E02400F8E2FC08E2FDEF2551
:1014D000E02418F8ECF208EDF2E0FF25E02420F813
:1014E000E4F208F2EF25E025E02428F8120B9F0033
:1014F0000000009001F1E004F0E0640260030213D8
:101500008422E49001F1F0A3F0A3F0FCA3F020CA40
:10151000030216E97866E670030216E9E49001F129
:10152000F09001F1E0FE2466F8E6FD741E2EF582CF
:10153000E43402F583EDF0E4F69001F1E004F0E02C
:10154000B40ADE90021EE0FE54F0FCEE540F90014F
:10155000F4F0AF04EF120BE0156450156E601578CF
:101560007015828015F6901627A01666B016E6C094
:10157000000016E97827E64401F6123BE7227827B7
:10158000E654FEF6123BE722E4FF123BD37829A68D
:10159000072290021FE07F00FE9001F2F0A3EFF01F
:1015A000900220E0FDEEEDFF9001F2EEF0A3EFF0EF
:1015B000D3940AEE940040030216E99001F4E0FF90
:1015C000B40F2DE49001F1F09001F1E0FEC394041A
:1015D00040030216E9A3E0FCA3E0FDEE75F008A4C9
:1015E0002434F8A60408A6059001F1E004F080D8A0
:1015F0009001F2E0FCA3E0FDEF75F008A42434F8BC
:10160000A60408A605229001F4E0FF70117827E6F1
:10161000FE20E1030216E954FDF6751C0222EF6478
:101620000160030216E97827E6FF30E1030216E9BC
:101630004402F6751C02229001F4E0FD7018782730
:10164000E6FE20E2030216E954FBF690015BE0445B
:1016500008F0751C0222ED640160030216E9782788
:10166000E6FF30E2030216E94404F690015BE04431
:1016700004F0751C02229001F4E0FF703A7827E62E
:1016800054DFF6E49001F1F09001F1E0FE25E02452
:1016900009F582E43437F583E493FC740193FDEE9D
:1016A00075F008A42434F8A60408A6059001F1E01A
:1016B00004F0E0B402D222EF6401703D7827E644E2
:1016C00020F6E49001F1F09001F1E0FF25E02439EB
:1016D000F582E43437F583E493FC740193FDEF75F0
:1016E000F008A42434F8A60408A6059001F1E0044B
:1016F000F0E0B402D222123BE7229001F3EEF0A315
:10170000EFF0E4A3F0A3F0A3F0A3F0A3F090013C6A
:10171000E07003021896D390015AE09400900159AA
:10172000E09400402374FFF5F012097E9001AD12A1
:101730000B6E00000001900159E0FEA3E0FFE4FC05
:10174000FD9001B1120B56227806E2FE08E2FF90EE
:1017500000A8E0FCA3E0FD12003ED3EF9464EE94F9
:10176000004041E490012CF0A3F0900128F0A3F098
:101770007804E2FF08E29000C2CFF0A3EFF09001FE
:10178000AD120B6E000000027806E2FE08E2FF9048
:1017900000A8E0FCA3E0FD12003EE4FCFD9001B1D6
:1017A000120B56229000A8E0FEA3E0FFC37807E2E8
:1017B0009FFF18E29E9001288FF012097E90012C65
:1017C000E475F00112097E9001F3E0FEA3E0FFC38F
:1017D00090012DE09F90012CE09E50030218BE78EE
:1017E00004E2FE08E2FF9000C2E0FCA3E0FD12006C
:1017F0003ED3EF9423EE9400500302188490012806
:10180000E0FCA3E0FDAE047803CEA2E713CE13D82C
:10181000F8FFC3ED9FFFEC9E9001F6F0A3EFF09070
:1018200001F6E0FAA3E0FB781FE22BF218E23AF2AD
:101830009001AD120B6E00000003C3EA6480948037
:1018400040149001F6E0FEA3E0FFEE3395E0FDFCCE
:101850009001B1120B569001F6E0FEA3E0FFC3EE3B
:10186000648094805012C3E49FFFE49EFE3395E0B1
:10187000FDFC9001B1120B56E490012CF0A3F09006
:101880000128F0A3F07804E2FF08E29000C2CFF054
:10189000A3EFF0229001AD120B6E00000005E49062
:1018A000012CF0A3F022E4FF1237CC900159EEF0A6
:1018B000A3EFF0E490012CF0A3F0900128F0A3F046
:1018C0007804E2FF08E29000C2CFF0A3EFF022E438
:1018D0009001F5F0A3F0EF70030219A4123AB4E4FA
:1018E000FD7F011236B57870120B9F0000000012C8
:1018F0003A497870120B49C000C001C002C0039081
:101900000177E075F003A4248FF582E4343BF5837E
:10191000120BD4120C06D003D002D001D000120951
:10192000947870120B629001F5E004F0E0FFC3942C
:101930000540BCE4FCFDFEC004C005C006C007783D
:1019400070120B31D003D002D001D000120A3A90AD
:1019500001F7120B569001F7120B3DC000782CE6F0
:10196000FFE4FCFDFED0001209AF9001F7120B5608
:101970009001F7120B257807120AF39001A5120BBC
:1019800056E47F05FEFDFC9001A5120B3D1209AF48
:101990009000B4120B56E47F1DFEFDFC9000B412C3
:1019A0000B3D1209AFE47B0AFAF9F8120A3A9000EB
:1019B000B9120B569000B9120B25EF24D0FFEE346C
:1019C0008AFEED34FFFDEC34FFFC900185120B56CE
:1019D0009000B0120B6E00000000E49000B8F09090
:1019E0000185120B25AB07AA069000B9120B25C37F
:1019F000EF9BFFEE9A9000C4F0A3EFF078047475AB
:101A0000F2087430F2E4A3F0A3F09000F4120B6E2D
:101A1000000075307860120B9F00007530E4900173
:101A2000F6F09001F6E0FFC394145018EF25E0247F
:101A3000CAF582E43400F583E4F0A3F09001F6E007
:101A400004F080DE9002017401F07F307E757D002D
:101A50007C00122F7A22E4FD301426ED25E02419B3
:101A6000F582E43437F583E493FE740193FFED25AA
:101A7000E024F2F582E43401F583EEF0A3EFF08088
:101A80004D301526ED25E02439F582E43437F58311
:101A9000E493FE740193FFED25E024F2F582E43433
:101AA00001F583EEF0A3EFF08024ED25E02409F5A5
:101AB00082E43437F583E493FE740193FFED25E06F
:101AC00024F2F582E43401F583EEF0A3EFF00DED9E
:101AD00064027084E4FDED25E02448F8E2FE08E2AB
:101AE000FFED25E02439F9D3E39F19E39E4016ED7D
:101AF00025E02438F8E2FE08E2FFED25E02448F86E
:101B0000EEF208EFF2ED25E024F2F582E43401F57F
:101B100083E0C313FEA3E013FFED25E02439F9D3DE
:101B2000E39F19E39E5047ED25E024F2F582E4346B
:101B300001F583E0FEA3E0FFED75F008A42434F87E
:101B4000A60608A607ED25E024F2F582E43401F5A7
:101B500083A3E025E0FF0582D5820215831582E08C
:101B600033F8ED25E02448C8F208EFF2803CED257B
:101B7000E02429F582E43437F583E493FE7401937D
:101B8000FFED25E02439F9D3E39F19E39E401BEDD7
:101B900025E02448F9E3C313FE09E313FFED75F0D4
:101BA00008A42434F8A60608A6070DED6402600315
:101BB000021AC6E4FDED75F008A42434F8E6FE0828
:101BC000E6FFED25E02450F8EEF208EFF20DEDB45B
:101BD00002E3229001F2EFF0E4A3F09001F3E0FFC2
:101BE000C394024003021D36EF25E025E0249DF555
:101BF00082E43401F583120B25EC4D4E4F70030245
:101C00001D169001F3E0FF25E025E0247DF582E438
:101C10003401F583120B3DEF25E025E0249DF5828C
:101C2000E43401F583120B25D3120AE240037F024C
:101C3000229001F3E0FF25E025E0247DF582E434E5
:101C400001F583120B3DEF25E025E0249DF582E4AC
:101C50003401F583120B251209A19001F4120B56E1
:101C6000E47FFF7EFFFDFC9001F4120B3DC3120ADE
:101C7000E240037F02229001F2E0704B7F03FEFD01
:101C8000FC9001F4120B3D1209AF9001F3E025E046
:101C900025E02408F8120B491209947802120AF37D
:101CA0009001F3E0FB25E025E02408F8120B62EB3D
:101CB00025E025E02408F8120B31EB25E02400F89C
:101CC000EEF208EFF280769001F2E064017041A339
:101CD000E025E025E02408F8120B319001F4120B06
:101CE0003D1209947801120AF39001F3E0FB25E01C
:101CF00025E02408F8120B62EB25E025E02408F823
:101D0000120B31EB25E02400F8EEF208EFF2802D03
:101D10009001F4120B259001F3E025E02400F8EE89
:101D2000F208EFF280179001F3E0FFC39402500A2B
:101D3000EF25E02420F8E4F208F27F02229001F37C
:101D4000E004F0021BCB7F06229001F2EFF0E4A347
:101D5000F09001F3E0FF25E02418F8E2FC08E2FD32
:101D6000EF25E02400F8E2FE08E2FFD39DEE9C4060
:101D70001BE025E02418F8E2FC08E2FDC3EF9DFF1C
:101D8000EE9CFEE4FCFDA3120B56800A9001F412B7
:101D90000B6E000000009001F2E06003021E25902F
:101DA00001F4120B257807120B069001F4120B5662
:101DB000900137E070347F03FEFDFC9001F4120BBC
:101DC0003D1209AF9001F3E025E025E02428F81248
:101DD0000B491209947802120AF39001F3E025E00E
:101DE00025E02428F8120B62802A9001F3E025E018
:101DF00025E02428F8120B319001F4120B3D120952
:101E0000947801120AF39001F3E025E025E02428FC
:101E1000F8120B629001F3E0FB25E025E02428F89E
:101E2000120B317807120AF3EB25E02420F8EEF2CA
:101E300008EFF280759001F2E0640170599001F4AE
:101E4000120B257807120B069001F4120B56900125
:101E5000F3E025E025E02428F8120B319001F4127C
:101E60000B3D1209947801120AF39001F3E0FB256F
:101E7000E025E02428F8120B62EB25E025E0242879
:101E8000F8120B317807120AF3EB25E02420F8EE64
:101E9000F208EFF280149001F4120B259001F3E0A8
:101EA00025E02420F8EEF208EFF29001F3E004F0D0
:101EB000E064026003021D417F06229001F1740775
:101EC000F0A3F0A3120B6E00000000123AB4E4FD80
:101ED0007F011236B59001F1E0FF602074017E00B1
:101EE000A807088005C333CE33CED8F9FFADACE4E4
:101EF000EF5D70089001F1E014F080D99001F2E0FC
:101F0000FF602074017E00A807088005C333CE332C
:101F1000CED8F9FFADAEE4EF5D70089001F2E014A9
:101F2000F080D99001F1E0FF7401A807088002C396
:101F300033D8FCF5AC9001F2E0FF7401A8070880EB
:101F400002C333D8FCFFF5AD8FAE53AACF9001FB8F
:101F5000E5BAF053BA0F43BA10123A49E49001F1CE
:101F6000F09001F1E0FFC39403504A74752FF5829D
:101F7000E43401F583E075F003A4248FF582E434A2
:101F80003BF583120BD4120C069001F7120B5690FE
:101F900001F7120B259001F3120B3DC3120AE25018
:101FA0000C9001F7120B259001F3120B569001F1E2
:101FB000E004F080AC9001F3120B3DC0009001F3FF
:101FC000120B257804120AF3D0001209949001F341
:101FD000120B569001F3120B25900165120B5690CF
:101FE00001F3120B257810120AF38FB39001F3124C
:101FF0000B257808120AF38FB29001F3120B258F8C
:10200000B143AA309001FBE0F5BA75AC0375ADC0E1
:1020100075AEC022439F04E453C6DFE5C600B5C6D3
:10202000F375830075820775FD0DE4E5FEF4FF7519
:10203000830075820675FD0DE4E5FEB50704F59E87
:102040008003759E0078100000D8FC53C6E043C69C
:102050000843C680759607759712758300758204CC
:1020600075FD0DE5FD0404F58F758300758203751C
:10207000FD0DE4E5FEF4FF75830075820275FD0D2C
:10208000E4E5FEB50704F595800375958375BE0EEE
:102090005392FE9001007F007E02E4F0A3DFFCDE9D
:1020A000FA78007F00E4F208DFFC78FFE4F6D8FD60
:1020B0007581740220E402000002236DE493A3F80A
:1020C000E493A34003F68001F208DFF48029E4934F
:1020D000A3F85407240CC8C333C4540F4420C88346
:1020E0004004F456800146F6DFE4800B0102040848
:1020F00010204080903523E47E019360BCA3FF5400
:102100003F30E509541FFEE493A360010ECF54C095
:1021100025E060A840B8E493A3FAE493A3F8E4931D
:10212000A3C8C582C8CAC583CAF0A3C8C582C8CA25
:10213000C583CADFE9DEE780BE9001F17407F0A332
:10214000F0A3120B6E00000000E4F5B375B24E75FB
:10215000B120123AB47D01E4FF1236B59001F1E0EE
:10216000FF602074017E00A807088005C333CE33CA
:10217000CED8F9FFADACE4EF5D70089001F1E0144A
:10218000F080D99001F2E0FF602074017E00A80782
:10219000088005C333CE33CED8F9FFADAEE4EF5D92
:1021A00070089001F2E014F080D99001F1E0FF7422
:1021B00001A807088002C333D8FCF5AC9001F2E017
:1021C000FF7401A807088002C333D8FCFFF5AD8F68
:1021D000AE53AACF9001FBE5BAF053BA0F43BA1041
:1021E000123A49900178E075F003A4248FF582E457
:1021F000343BF583120BD4120C069001F7120B56E8
:102200009001F7120B259001F3120B3DC3120AE265
:10221000500C9001F7120B259001F3120B56900110
:10222000F3120B3DC0009001F3120B257804120A43
:10223000F3D0001209949001F3120B569001F3129F
:102240000B25900169120B5643AA309001FBE0F573
:10225000BA75AC0375ADC075AEC022E49001F1F063
:102260009001F1E0FE75F008A42436FFEE25E0248D
:1022700038F8E2FC08E2FD123CB99001F1E0FE758D
:10228000F008A42438FFEE25E02420F8E2FC08E260
:10229000FD123CB99001F1E0FE75F008A4243AFB70
:1022A000EE25E025E0249DF582E43401F583120B50
:1022B000257804120AF3AD07AC06AF03123CB990BF
:1022C00001F1E004F0E0C3940240957F467804E217
:1022D000FC08E2FD123CB97F4AC0079000A0120B37
:1022E00025AD07AC06D007123CB97F52C00790005D
:1022F0009C120B25AD07AC06D007123CB97F4EC02F
:10230000079000B9120B25AD07AC06D007123CB9F7
:102310007F5490370FE493FC740193FD123CB97F16
:102320005690370F74019324E7FDE49334FFFC12B9
:102330003CB97F587D647C00123CB97F5A783EE2FC
:10234000FC08E2FD123CB97F5C7826E2FC08E2FD65
:10235000123CB97F5E7806E2FC08E2FD123CB97FD0
:1023600060781EE2FC08E2FD123CB97F6290013DFC
:10237000E0FD7C00123CB97827E6F52222123B539F
:10238000123CA7123CD9122EE4123A921238B8121B
:102390003926123AF5D2AF751C01E51C24FE605BAC
:1023A00024FE7003022414147003022449147003E1
:1023B000022456240560030224677F0212378B1221
:1023C0003CC9123BFB123BA79002017401F07F3025
:1023D0007E757D007C00122F7A9002077401F07FD9
:1023E000307E757D007C001226659002077401F036
:1023F0007F307E757D007C00122570D2D8123400AB
:10240000900162E070FA900165120B259001F312C1
:102410000B56E4FD7F011233959001627401F07553
:102420001C048056D2D8900162E06003438701907B
:102430000162E070FA122921123238900165120B04
:10244000259001F3120B56E4FD7F011233959001A4
:10245000627401F0751C05802112332A8F1C122230
:102460004B12312E8014300003122846122CFB121E
:102470003809751C048003751C011200031214F244
:1024800002238A229001F3EEF0A3EFF0E4A3F09090
:10249000022DE07016900142E0B4050FD390014E7A
:1024A000E0940090014DE094004010E47886F2083A
:1024B000F27874120B9F00000000227806E2FE08FA
:1024C000E2FFE4FCFD9001F6120B567874120B311A
:1024D0009001F6120B3D1209947874120B62788702
:1024E000E22401F218E23400F29001F3E0FEA3E0EE
:1024F000FFC308E29F18E29E500302256FE2FE0828
:10250000E2FFE4FCFDC004C005C006C007787412F9
:102510000B31D003D002D001D000120A3A9001FA58
:10252000120B569001FA120B259001FEEEF0A3EF6C
:10253000F0781EE2FC08E2FDD39FEC9E401790016C
:10254000FEE0FEA3E0FFE4FCFD9001F6120B3DD39C
:10255000120AE2500E9001FEE0FFA3E0781ECFF2D7
:1025600008EFF29001FA120B25781EEEF208EFF256
:10257000E47886F208F27874120B9F0000000022C3
:10258000900203120B56900207E0B401259001C19E
:10259000120B6E000075309001C1120B25780312EA
:1025A0000B069001C1120B569001C5120B6E000074
:1025B0007530D37827E294F418E294014018E47F50
:1025C00008FEFDFC900203120B3D1209AF900208B9
:1025D000120B56022646200039E47F02FEFDFC90D5
:1025E00001C5120B3D1209AFC004C005C006C007EB
:1025F000E47F06FEFDFC900203120B3D1209AFD0F2
:1026000003D002D001D000120994900208120B5698
:102610008044E47F03FEFDFC9001C1120B3D1209D2
:10262000AF900208120B56900208120B2578021286
:102630000AF3900208120B56900203120B25900128
:10264000C5120B3D120994900208120B3D12099419
:10265000900208120B56900208120B259001C1122D
:102660000B56900203120B259001C5120B569001D8
:10267000C1120B2522900203120B56900207E0B400
:1026800001259001C9120B6E000075309001C9122E
:102690000B257803120B069001C9120B569001CD41
:1026A000120B6E00007530D37827E294F418E29490
:1026B000014018E47F08FEFDFC900203120B3D125E
:1026C00009AF900208120B5602273B200039E47F25
:1026D00002FEFDFC9001CD120B3D1209AFC004C0FB
:1026E00005C006C007E47F06FEFDFC900203120B46
:1026F0003D1209AFD003D002D001D000120994904E
:102700000208120B568044E47F03FEFDFC9001C9D1
:10271000120B3D1209AF900208120B5690020812DC
:102720000B257802120AF3900208120B569002034E
:10273000120B259001CD120B3D1209949002081244
:102740000B3D120994900208120B56900208120BCE
:10275000259001C9120B56900203120B259001CD52
:10276000120B569001C9120B25229001F2EFF0785E
:102770001EE2FE08E2FF7806E2FC08E2FDD39FECD1
:102780009E4016781EE2FE08E2FFED9FFFEC9EFEE3
:10279000E4FCFDA3120B56800A9001F3120B6E00AD
:1027A0000000009001F2E0704BA3120B2578071295
:1027B0000B069001F3120B56E47F03FEFDFC900123
:1027C000F3120B3D1209AF7834120B4912099478B9
:1027D00002120AF37834120B627834120B31780744
:1027E000120AF39000AAEEF0A3EFF07826EEF208BA
:1027F000EFF2805F9001F2E064017042A3120B25BA
:102800007807120B069001F3120B569001F3120B8E
:10281000257834120B491209947801120AF378349E
:10282000120B627834120B317807120AF39000AA67
:10283000EEF0A3EFF07826EEF208EFF280159001AB
:10284000F3120B259000AAEEF0A3EFF07826EEF23B
:1028500008EFF27F06221200071231B3122E451242
:1028600038EF90013AEFF01239F2EF7003022920AD
:102870007F011237CCAD07AC06D390014AE094003B
:10288000900149E094004010ECC4F854F0C868FC92
:10289000EDC4540F48FD802E301811EDAE047803BE
:1028A000CEC313CE13D8F9FDAC06801AC3784DE21F
:1028B000941E18E29400500EECC4F854F0C868FC62
:1028C000EDC4540F48FDAE04AF05120E67900137FA
:1028D000E0602A7F051237CCD3900148E09F900139
:1028E00047E09E400CE490013AF0900137F012343A
:1028F000C5900147E475F00112097E8007E490015C
:1029000047F0A3F0900137E0FF900136E06F6020C0
:1029100012309F900137E0900136F0900138E0547A
:10292000F0600D7F061237CC90014BEEF0A3EFF074
:10293000229001F2120B6E00000000E49001F1F011
:102940009001F1E0FBC394025057742A2BF8E6FF84
:10295000E4FCFDFEEB25E025E0248DF582E4340166
:10296000F583120B3D1209AF9001F2120B56900144
:10297000F2120B257807120AF39001F2120B56900F
:1029800001F2120B259001F1E025E025E0249DF5F0
:1029900082E43401F583120B569001F1E004F080DB
:1029A0009F782CE6FFE4FCFDFE900195120B3D1292
:1029B00009AF9001F2120B569001F2120B25780725
:1029C000120AF39001F2120B569001F2120B2590AD
:1029D00001A5120B56782DE6FFE4FCFDFE9001994F
:1029E000120B3D1209AF9001F2120B569001F21238
:1029F0000B257807120AF39001F2120B569001F2A0
:102A0000120B259001A9120B5622C0E0C0F0C08322
:102A1000C082C0D075D01053B9FD900162E064014E
:102A20006003022A9F90020CF090020CE0FFC39416
:102A300002503A74752FF582E43401F583E075F0A5
:102A400003A4248FF582E4343BF583120BD4120CDB
:102A50000690020CE025E025E0248DF582E43401A7
:102A6000F583120B5690020CE004F080BC900177C5
:102A7000E075F003A4248FF582E4343BF583120B58
:102A8000D4120C06900195120B56900178E0903705
:102A90000093F5B490016AE0F5B3A3E0F5B2A3E0CA
:102AA000F5B143B901D2D89001627402F080299047
:102AB0000162E0B40222900178E075F003A4248F53
:102AC000F582E4343BF583120BD4120C0690019985
:102AD000120B56900162E4F0D0D0D082D083D0F0B7
:102AE000D0E032C0E0C0F0C083C082C0D075D00852
:102AF000C2CFD20730CD03022B9130CB3A20CC3756
:102B00007870A6CEE6FFC39480402375F003EF9063
:102B10002C23120BB8120BD48B198A1A891B781923
:102B2000E475F001120BC41208FEF5CE800978702E
:102B3000E62518F8E6F5CE30CC247870E6C394800C
:102B400040107819E475F001120BC41208FEF5CE9E
:102B5000804D787006E62518F8E6F5CE804120CB4A
:102B60003E85CE1D7870E6FF7024E51DB4100990F7
:102B7000022EE0F452808027E51DB4200890022E3A
:102B8000E04280801A7866A61D7870068011EFC337
:102B9000940A50087870E62466F8A61D787006D26C
:102BA00005D0D0D082D083D0F0D0E032E4FFFEEE6A
:102BB00075F008A42434F8E6FC08E6FDEE25E024D0
:102BC00041F9C3E39D19E39C400D7401A8060880F8
:102BD00002C333D8FC4FFF0EEEB402D3807DEEC3A8
:102BE00094025077EE75F008A42434F8E6FC08E669
:102BF000FDEE25E02441F9C3E39D19E39C401DEE61
:102C000025E02445F9C3E3940A19E39400400D74C8
:102C100001A806088002C333D8FC4FFFEE75F00808
:102C2000A42444F8E6FC08E6FDEE25E02445F9C3BB
:102C3000E39D19E39C4021EE25E02441F9C3E39490
:102C40000A19E394004011EE2402FD7401A805085E
:102C50008002C333D8FC4FFF0E8083900228EFF030
:102C600022E49001F1F090015BE054036032C20570
:102C70007F091237CC900153EEF0A3EFF090015B87
:102C8000E054FCF0C2927864760008769678640886
:102C9000E6161886067001164E60030080EFD29289
:102CA00090015BE0FF30E21490013DE0540F6022A0
:102CB000782476049001F17401F08016EF30E3126D
:102CC00090013DE0540F600A782476409001F17441
:102CD00001F090015BE054F3F09001F1E0602BC251
:102CE000057F091237CC900153EEF0A3EFF0786422
:102CF0007600087696C292786408E6161886067002
:102D000001164E60030080EFD29222123A6F9001BA
:102D10003FEFF012398EEF7003022DA230000F7FCB
:102D2000041237CC9001F1EEF0A3EFF0800D7F029A
:102D30001237CC9001F1EEF0A3EFF0D390014AE00E
:102D40009400900149E0940040169001F1E0FEA348
:102D5000E07802CEC313CE13D8F9F0EE9001F1F073
:102D60009001F1E0FEA3E0FF1224747F0C1237CC37
:102D70009001F1EEF0A3EFF01216EA90013CE0FFB3
:102D800090013BE06F602B12361C90013CE09001FB
:102D90003BF090013DE054F060187F071237CC9073
:102DA000014DEEF0A3EFF090014DE0C313F0A3E06E
:102DB00013F022FE0000FE0008FE0018FE0020FEB8
:102DC0000020FE0028FE0038FE0040FE0040FE000D
:102DD0004801018D01019501019D0101A501022814
:102DE00001022901022A01013A01013F01013701D3
:102DF000013C01013601013BFE0028FE00480101B3
:102E000047010143010145010149010151010153FC
:102E100001014B01017D0101850100AA010155015C
:102E200000A40100AE01016301016401016501011B
:102E3000690101AD0101B501019D0101A50100A0DC
:102E400001009C0100B901013401013801013D017B
:102E500000A40100C4E49001F1F09001F1E0FF252D
:102E6000E02418F8E2FC08E2FDEF25E02401F9C3B4
:102E7000E39D19E39C5052E025E02400F8E2FC08B1
:102E8000E2FDEF25E02419F8C3E29DFF18E29CFE65
:102E9000A3F0A3EFF0E4FCFD7B64FAF9F81209AFAC
:102EA000C006C0079001F1E025E02458F8E2FE08D2
:102EB000E2FFFBAA06E4F9F8D007D006120A3A901E
:102EC00001F4EEF0A3EFF0800BE49001F2F0A3F038
:102ED000A3F0A3F0D39001F5E0940A9001F4E094FC
:102EE000004002D2189001F1E004F0E064026003B7
:102EF000022E4A22E49001F1F07824F6FF123BD32F
:102F00009001F1EFF0BFFF06E47825F68004782504
:102F100076FFE47826F608F6782976FFFFEF25E0BD
:102F20002409F582E43437F583E493FC740193FDBE
:102F3000EF75F008A42434F8A60408A605EF75F090
:102F400008A42436F8E4F608F6EF75F008A424384F
:102F5000F8E4F608F6EF75F008A4243AF8E4F60869
:102F6000F60FEFB402B7E47854F608F608F608F660
:102F700008F608F608F608F608F608F608F608F661
:102F800008F608F608F6751824229001FD120B5673
:102F9000900201E0B401259001D1120B6E00007582
:102FA000309001D1120B257803120B069001D1123B
:102FB0000B569001D5120B6E00007530E47F03FEB6
:102FC000FDFC9001D1120B3D1209AF900202120BD1
:102FD00056900202120B257802120AF39002021296
:102FE0000B569001FD120B259001D5120B3D1209D5
:102FF00094900202120B3D120994900202120B5699
:10300000900202120B259001D1120B569001FD1275
:103010000B259001D5120B569001D1120B25227D64
:10302000FF023099783CE6FE08E6FFC37843E29F52
:1030300018E29E4010784CE6FE08E6FF7847E29FD3
:1030400018E29E50647824E2FE08E2FF7821E22F25
:10305000FF18E23E9001F2F0A3EFF07826E2FE08BE
:10306000E2FF7823E22FFF18E23EA3F0A3EFF0E0A7
:1030700025E0FF9001F4E033FE9001F2E0FAA3E0D6
:10308000FBC39FEA9E5004ED54FAFDEB25E0FFEAF6
:1030900033FEC39001F5E09F9001F4E09E500AEDED
:1030A00054F5FD8004ED54F0FD900229EDF02290DE
:1030B00001F1EFF090015BE0600302312DF9FFFEBA
:1030C0007401A806088002C333D8FCFD9001F1E02A
:1030D0005DFC900136E05D6C600790015BE04401AF
:1030E000F0900136E05DB50513EE2404FC7401A8F0
:1030F00004088002C333D8FC49F9800D7401A80686
:10310000088002C333D8FC49F99001F1E05DB505B0
:103110000F7401A806088002C333D8FC4FFF80114A
:10312000EE2404FD7401A805088002C333D8FC4FC7
:10313000FF0EEE64027089E95F900138F022D390AF
:10314000014AE09400900149E09400400774FFF5C3
:10315000F012097ED390014CE0940090014BE09472
:1031600000400774FFF5F012097ED3900154E094FB
:1031700000900153E09400401374FFF5F012097EB3
:10318000900153E07002A3E07002D205900143E485
:1031900075F00112097ED390014EE0940090014D2C
:1031A000E09400400774FFF5F012097ED3900152BD
:1031B000E09400900151E09400400774FFF5F01294
:1031C000097E227840E2FE08E2FF9001F1EEF0A3D2
:1031D000EFF0A3EEF0A3EFF07F01EF25E02440F83D
:1031E000E2FC08E2FDD39001F2E09D9001F1E09C49
:1031F000400FEF25E02440F8E2FD08E2CDF0A3ED1A
:10320000F0EF25E02440F8E2FC08E2FDC39001F471
:10321000E09D9001F3E09C500FEF25E02440F8E2A0
:10322000FD08E2CDF0A3EDF00FEFB402AD9001F197
:10323000E0FFA3E0784ECFF208EFF2A3E0FFA3E0B7
:10324000784CCFF208EFF222E49001F1F0A3F0788D
:1032500027E630E103C2062230071A900145E4F068
:10326000A3745AF07F0B1237CC900151EEF0A3EF0C
:10327000F0C207801F900151E07002A3E07015902A
:103280000145E07004A3E064046009900145E4F0A6
:10329000A37404F0900149E07002A3E0701990015A
:1032A00051E07002A3E0700F30050C900137E0543C
:1032B000037004C2068002D206200608E4FF123919
:1032C0005A123B1522E49001F2F09001F2E0F9C3AA
:1032D00094025065E925E02420F8E2FE08E2FFA30D
:1032E000EEF0A3EFF0E4FCFD7B64FAF9F81209AF0D
:1032F000C006C0079001F2E025E02458F8E2FE087D
:10330000E2FFFBAA06E4F9F8D007D006120A3A90C9
:1033100001F2E0FD25E02438F8EEF208EFF2ED25A9
:10332000E02438F8E2FE08E2FFED25E02440F8EE64
:10333000F208EFF2E004F08091229001F17406F0BF
:103340003000277F02121BC39001F1EFF0BF02058E
:10335000D208E0FF22E4FF121D399001F1EFF0BF27
:103360000205D208E0FF221232B51205029001F1E7
:10337000EFF0BF0205D208E0FF2212005E9001F1DB
:10338000EFF0BF0205D209E0FF227F0212275A9018
:1033900001F1EFF0BF0205D209E0FF2212387F9061
:1033A00001F1E0FF229001F1EFF0A3EDF01236B54C
:1033B0009001F1E06010900166E0F5B3A3E0F5B292
:1033C000A3E0F5B180389001F2E0601090016AE06E
:1033D000F5B3A3E0F5B2A3E0F5B180229001F312BA
:1033E0000B257810120AF38FB39001F3120B257896
:1033F00008120AF38FB29001F3120B258FB175BF3B
:103400000F43B92053B9FD43BA0143B901D2D822C1
:103410007827E6FF30E104D2008002C200EF30E2FC
:1034200004D2018002C201A202300001B350141282
:1034300035783000051212D680031234C5A20092EE
:103440000280063008031212D6A203300101B350E5
:1034500006A20192038006300903123BE77827E6B3
:1034600030E10A900145E4F0A3745AF0229001453E
:10347000E4F0A37404F022C0E0C0F0C083C082C0B6
:10348000D075D000C000C007C28D758C32758AEB34
:1034900090020DE475F00112097EC390020EE094D3
:1034A0001490020DE09400401D30000D900143E0A7
:1034B000FFA3E0A3CFF0A3EFF0900143E4F0A3F06B
:1034C00090020DF0A3F0D007D000D0D0D082D083EE
:1034D000D0F0D0E032E4FBEB25E025E0249DF5823E
:1034E000E43401F583120B25EF24D0FFEE348AFE7D
:1034F000ED34FFFDEC34FFFCEB25E025E0247DF509
:1035000082E43401F583120B56EB25E02400F874B5
:1035100075F2087430F2EB25E02420F8E4F208F2AA
:10352000EB25E02418F87475F2087430F20BEBB454
:1035300002A522603F0136000000000000000000EC
:10354000000000000000000000000000000000007B
:10355000000000000000000000000000000000006B
:10356000000000000000000000000000000000005B
:10357000000000000000480175030400060102FF7E
:10358000FF04710000000000E4FF900137F090019B
:1035900036F0900141F0900147F0A3F090014BF01C
:1035A000A3F0900138F0A3F0F523EF25E02458F8BC
:1035B000E2FC08E2FD90015CEC8DF012097E0FEF59
:1035C000B402E790015CE0FEA3E0FF7C007D0A12FC
:1035D000092990015CEEF0A3EFF022A907E4FF7E39
:1035E0000474752EF582E43401F583E0903700937E
:1035F0004FFF0EEEB406EAE96005EF42D48004EF17
:10360000F452D4EFF4FE52F4EF42E4ED6005EF42E1
:10361000EC8003EE52ECEFF4FE52DCEB6005EF427F
:10362000808003EE528090022EEFF022AA079001D4
:103630005BE0F97044FCFF7E04EA540FFD90013B0F
:10364000E0540F6D600A300107E9440290015BF01D
:1036500090013BE0540F6008EEC454F04CFC800332
:10366000EC4EFCEA540F6005EF4EFF8006EEC454AA
:10367000F04FFFEC5F90013DF0229001F2120B6ED3
:1036800000000000E49001F1F09001F2120B3DC047
:10369000009001F1E0242AF8E6FFE4FCFDFED000F2
:1036A000120994A3120B569001F1E004F0E0B40269
:1036B000D8E47B02FAF9F89001F2120B25120A3ACB
:1036C000782DA60722E4FEFC9001FCEDF090017736
:1036D000E090370093FCEF601B300018E4FF747536
:1036E0002FF582E43401F583E0903700934CFC0F12
:1036F000EFB402EA900178E0903700934EFE90011B
:1037000063ECF0AF06A3EFF0900163E04FF5B42255
:103710000102040810204080E700320032003C0122
:10372000F4003C003C003C003C003C003C003C0001
:103730003C003C003C003C003C00780078003C0031
:103740003C003C003C003C003C03E803E8003C003B
:103750003C003C003C003C003CE4FF90013CE0703D
:103760001890370F93FC740193FDC37847E29D18BE
:10377000E29C40217404FF801C90370F7401932455
:10378000E7FDE49334FFFCC3783FE29D18E29C40E0
:1037900004EF4404FF90022DEFF0227827A607EFF4
:1037A000B40208D202D200C203C201EFB40408C2BC
:1037B00002C200D203D201EFB40608D202D200D274
:1037C00003D201900145E4F0A3745AF07F0A123746
:1037D000CC900149EEF0A3EFF0D206229001FA74EA
:1037E00002F0A3740FF07B017A00EFB40E057F01A5
:1037F0007E00229001FAE0FCA3E02FF582E43CF584
:1038000083E07A00FB900145E0FCA3E0FDAF037E7E
:1038100000120917AA06AB0722E4FFFE900139E067
:10382000FD900138E0FC6D6003ECFF0E300112905A
:10383000013EE0FD90013DE0FC6D6005EC4FFF7E38
:1038400001EE60047824A607900138E0A3F090010F
:103850003DE0A3F022E4FFFEEE75F008A42435F865
:10386000E624FDFD18E634FFFCEE25E02439F9C31B
:10387000E39D19E39C400D7401A806088002C33340
:10388000D8FC4FFF0EEEB402CF90022AEFF0227860
:1038900026E2FE08E2FFE4FCFD7B64FAF9F8120977
:1038A000AFC006C007785EE2FE08E2FFFBAA06E4AE
:1038B000F9F8D007D006120A3A783EEEF208EFF295
:1038C0007846EEF208EFF2227E027F0FE4FDED254E
:1038D000E02471F582E4343BF583E493640E601ECA
:1038E000ED25E02472F582E4343BF583E493FCEFAC
:1038F0002DF582E43EF583ECF00DEDB40FD02212ED
:103900001A46122B9C12300F123845900137E07086
:1039100014900228E0FF9001F1F0900229E05F90FE
:1039200001F1F0800890022AE09001F1F09001F19D
:10393000E0FF1239C02243F80875CD4053CC7F43D5
:10394000CC4043CC2043CC1043CC0453CCFD43CBE0
:103950000243CB0153CBBF43E80853E5FC43E302EA
:1039600043F50343900343ED0322E4900162F053D7
:10397000B9FD43CC02C2D9439F10539FFD438760DA
:10398000759262C28DEF700675BD0D75BC01123B5C
:10399000BE75BE0CD28C43870300000000227E055A
:1039A00090013CE06F6009D207EFF0E4900142F033
:1039B00090013CE070027E02AF06900142E004F00C
:1039C000C39F50037F00229001427405F07F0122C3
:1039D000A907E4FDFC74017E00A804088005C33338
:1039E000CE33CED8F9FFE9FBE4EF5B600D7401A89C
:1039F00004088002C333D8FC4DFD0CECB402D6AFF2
:103A000005227E03900137E06F6007EFF0E490013C
:103A100041F0900137E070027E01AF06900141E075
:103A200004F0C39F50037F00229001417403F07F94
:103A30000122E4FFFE74752EF582E43401F583E083
:103A4000903700934FFF0EEEB404EAEF42D4EF42FA
:103A5000F4EF42E4EFF452DC2275BF0F00000000E7
:103A60000000000000000000000000000000D2D8AC
:103A700053B9FD43B901E5B930E1FBE4F5BF22904C
:103A800000ACE0FEA3E0FF7826E2FC08E2FD1200B5
:103A90003E9000AEEEF0A3EFF012374990022DE019
:103AA000FF22438901C28DD2A953B8FDE490020DD3
:103AB000F0A3F0900143F0A3F0758C32758AEBD23D
:103AC0008CD2AF2253BAFEE5B920E006900162E045
:103AD0006005E5B930E1FBE4F5BF53B9FD53B9FE2C
:103AE000900162F022E490013CF090013BF09001E3
:103AF00042F090014DF0A3F090013DF0A3F0900052
:103B0000AEF0A3F02278587401F20874F4F208744D
:103B100001F20874F4F208E4F2087464F208E4F2C2
:103B2000087464F222E4FF75BE0E439F100FEFB4D9
:103B3000FFFB439F0275BC02759276E4F5BFD2D9B4
:103B400053CCFD22EF600543D504800353D5FB53CE
:103B5000F5FB53E5FB43E30443ED04E490015BF024
:103B6000D29222E4F5E3439F10439F02FF0FEFB48C
:103B7000FFFB539FEF75BE0EE4F5BFF5B975927666
:103B800022000201010205030104050506060107E2
:103B900001080209010A030B010C0A0D040E01FFC2
:103BA0003C0FFF3C22FF3C35FF3C48FF3C5BFF3CA9
:103BB0006EFF3C81FF3C94E4900153F0A3F07F0B37
:103BC0001237CC900151EEF0A3EFF0D205224389D9
:103BD00001C28CC28FE490020DF0A3F0758CFB75CE
:103BE0008AED22E4FFF582F5837440FEE493F42F1E
:103BF000FFA3EEB583F622900162E070FAE4FF12B3
:103C000010AEE4FF1218BF123AD52212366A122102
:103C1000297F011210AE7F011218BF123AD522532C
:103C2000B9EF7872A6B708A6B608A6B57871120BD8
:103C3000192253B9EF7872A6EB08A6EA08A6E9782C
:103C400071120B192253B9EF7872A6F308A6F20885
:103C5000A6F17871120B192253B9EF7872A6FB08FE
:103C6000A6FA08A6F97871120B192243B9107872D6
:103C7000A6B708A6B608A6B57871120B192243B9E3
:103C8000107872A6EB08A6EA08A6E97871120B195B
:103C90002243B9107872A6F308A6F208A6F178714B
:103CA000120B192243B9107872A6FB08A6FA08A6CF
:103CB000F97871120B1922123A227B017D01E4FF7F
:103CC0001235CB7F01123B342220C90CC2AFA807AA
:103CD000A60408A605D2AF222212000E120C0C1266
:103CE0001EAB1212D612357822C2DA53D80F43D83F
:103CF000D0D2D8D2D922FFFFFFFFFFFFFFFFFFFF87
:103D0000FFFFFFFFFFFFFFFFFFFFFFFFFFFFFFFFC3
:00000001FF
